:4000000000800020110000001D1400001D14000080B500AF024A034B1B68136001F02CFABC760040FA46004010B5054C237833B9044B13B10448AFF300800123237010BD8E
:400040004881FF1F0000000004640000084B10B51BB108490848AFF300800848036803B910BD074B002BFBD0BDE81040184700BF000000004C81FF1F04640000C880FF1F32
:400080000000000080B400AF094B1B78002B14BF01230023DBB283F00103DBB203F00103DAB2034B1A7000BFBD4680BC704700BFE881FF1F80B400AF034B01221A7000BFAD
:4000C000BD4680BC704700BFA082FF1F90B599B000AF62B66C4801F005FE6C4802F0C0FC01F030FB012001F0AFFB694801F074FB01F0DEFD02F0CAFB02F000FD02F00CF85B
:4001000002F0AAFB02F02EFC00F0E8F800F054F900F0BEF9322001F04FFA012001F094FB5C4801F059FB0021012001F01DFB5A4801F052FB594B5A4A9A645A4B5A4A9A648A
:400140005A4B5B4A9A645A4BBB64544800F078FD544800F075FD554800F072FD554B00221A700121002000F09BF9642001F024FA3B46184600F064FDD7E910344E4AC2E95C
:400180000034642001F018FA0021002000F088F93B46184600F054FDD7E91034474AC2E90034012001F050FB454801F015FB00BF404B1B7883F00103DBB2002BF8D101205D
:4001C00001F042FB3F4801F007FB4FF000034FF00004C7E9163400237B657B6D01337B6500F0E2FB0346002B11D07B6D032B09D1012001F029FB344801F0EEFA00210120FA
:4002000001F0B2FA00F0C8FAC7E9160117E07B6D032B09D1012001F017FB2C4801F0DCFA0021012001F0A0FA00F03AFBC7E91601274A4FF000034FF00004C2E900347B6DEC
:40024000032B19D1234801F0C7FA144800F044FD03460C461846214600F0A6F94FF000021D4B05F093F903460C4600221846214600F0DEF900237B6501230122D7E9160139
:4002800000F0E6FBA9E700BF85000000B50000000864000014640000206400005082FF1F490400009881FF1F01040000F881FF1F91030000E881FF1F4882FF1FF081FF1FDA
:4002C000306400003864000044640000486400006881FF1F5064000000408F4080B582B000AF02F025F802F0FDF800F00BF803467B607B681BB2184602F01CF900BF08377A
:40030000BD4680BD80B582B000AF00237B6000233B6010E0104B1B78002B0CD002F0F2F803461A467B6813447B603B6801333B60094B00221A703B68632BEBDD7B68074A8D
:4003400082FB03125211DB17D31A7B607B681BB218460837BD4680BDA082FF1F1F85EB5198B500AFFFF7CEFF0346184602F032F905A3D3E9002305F033FA03460C461846FC
:40038000214698BDAFF30080B0726891ED7CCF3F98B500AFFFF7E4FF05A3D3E9002305F0F5F803460C461846214698BDAFF30080E86A2BF697DD833F80B500AF01F0ACFE90
:4003C00002F04AFA01F014FD01F0F8FD4FF4804001F04EFD4FF4804001F030FE00BF80BD80B500AF01F020FD03461BB2184680BD80B500AF01F0FEFD03461BB2184680BD5E
:4004000098B500AFFFF7ECFF03465B00184605F057F809A3D3E9002305F0B8F803460C46184621464FF00002054B05F0D9F903460C461846214698BD182D4454FB210940BA
:40044000000050400000000098B500AFFFF7D0FF03465B00184605F033F809A3D3E9002305F094F803460C461846214606A3D3E9002305F0B5F903460C461846214698BDBD
:40048000182D4454FB2109400000000000A49F4080B500AF01F06EFB00BF80BD0000000090B583B000AF78600B46FB701E4B1B7883F00103DBB2002B0BD0002001F0BCFBB4
:4004C00000221A491A4805F079FB194801F0CEFB21E0FB78184601F0AFFB786804F0F0FF4FF00002134B00F029F80DA3D3E9002300F03EF803460C461846214605F0F6FAB7
:4005000003467B607A6809490B4805F057FB0A4801F0ACFB00BF0C37BD4690BDAFF300800000000000E06F40E881FF1F586400007081FF1F0000F03F7481FF1F90B585B0CE
:4005400000AFC7E90201C7E90023D7E90023D7E9020105F0ABFA0346002B02D0D7E9023401E0D7E90034184621461437BD4690BD90B585B000AFC7E90201C7E90023D7E926
:400580000023D7E9020105F073FA0346002B02D0D7E9023401E0D7E90034184621461437BD4690BD0000000090B583B000AFC7E900011BA3D3E90023D7E9000104F034FE26
:4005C00003460C461846214617A3D3E9002302F0DFFBC7E900014FF000024FF00003D7E9000105F045FA0346002B0AD00EA3D3E90023D7E9000104F017FE03460C46C7E91A
:40060000003407A3D3E90023D7E9000104F00AFE03460C46184621460C37BD4690BD00BF182D4454FB210940182D4454FB211940B0B588B000AFC7E902017A604FF00002E0
:400640004FF00003D7E9020105F026FA0346002B46D0D7E9020102F0C3FA03460C461846214605F043FA0346FB61F86904F028FF03460C461A462346D7E9020104F0D2FDC7
:4006800003460C4625461C46786804F019FF02460B464FF000003C4902F0DCFB02460B462046294604F072FF03460C461846214602F01EFB03460C461846214605F016FA1D
:4006C0000346BB61FB699BB2184601F001FA2F4801F082F8BB699BB2184601F0F9F94EE0BB68BB60FB6883F00043FB60D7E9020102F076FA03460C461846214605F0F6F9BD
:4007000003467B61786904F0DBFE03460C461A462346D7E9020104F085FD03460C4625461C46786804F0CCFE02460B464FF00000154902F08FFB02460B462046294604F02F
:4007400025FF03460C461846214602F0D1FA03460C461846214605F0C9F903463B610C4801F03AF87B699BB2184601F0B1F9074801F032F83B699BB2184601F0A9F900BF90
:400780002037BD46B0BD00BF000024406064000064640000000000002DE9B0438CB000AF3D4800F087FAC7E90A013B4800F0B4FAC7E90801394800F0AFFAC7E906012EA3A2
:4007C000D3E90023D7E9060104F0E0FE02460B46C7E904232AA3D3E90023D7E9040104F023FD02460B46D7E90A0104F01BFD02460B4610461946FFF7D7FEC7E9020122A38B
:40080000D3E90023D7E9020104F0C0FE02460B46904699461EA3D3E90023D7E9080104F0B5FE02460B464046494604F0FDFC02460B46904699464FF000024FF00003D7E9DA
:40084000060104F0A3FE02460B464046494604F0EBFC02460B46C7E900233C687B6883F0004523462C46184621463037BD46BDE8B08300BFAFF30080DE0033DFC14F2C3F7A
:40088000182D4454FB210940F5DBD7817346DC3F6744696FF085C13F5082FF1F9881FF1F90B58FB000AF3E4800F004FA03460C4618462146FFF778FEC7E90C01384800F03B
:4008C0002BFAC7E90A014FF000024FF08043D7E90A0102F0BFFA2CA3D3E9002304F056FE03460C46C7E90834D7E90C0102F030F927A3D3E9002304F049FE03460C46C7E9CB
:400900000634D7E90623D7E9080104F08DFC03460C46C7E9043420A3D3E90023D7E9040104F080FC03460C46C7E902344FF000024FF00003D7E90A0105F0B8F80346002B0C
:4009400002D04FF0FF3300E001237B604FF00002144BD7E9020104F019FE03460C461846214605F0C3F803463B607B683A6802FB03F3184604F0A4FD03460C461846214628
:400980003C37BD4690BD00BF4A61E7A5D42D503F2B4F3C414425C7BFC7135DF1B68DC83F5082FF1F00006940B0B588B000AF264800F080F902460B4610461946FFF7F4FDA5
:4009C000C7E90601204800F0A7F9C7E904011AA3D3E90023D7E9060104F024FC02460B4610461946FFF7E0FDC7E90201BB683B60FB6823F000437B6011A3D3E90023D7E9A3
:400A0000000105F035F80346002B0FD03C697B6923F000454FF000020C4B2046294605F027F80346002B01D0012300E0002318462037BD46B0BD00BF182D4454FB2109404C
:400A40007B14AE47E17AC43F5082FF1F00001440B0B592B000AFC7E9020111461A460B46FB711346BB71704800F044F9C7E90E0165A3D3E90023D7E90E0104F087FD034633
:400A80000C461846214662A3D3E9002304F0A8FE03460C4618462146D7E9022304F0C4FB03460C461846214659A3D3E9002304F06DFD03460C461846214657A3D3E90023D7
:400AC00004F08EFE03460C46C7E90C34574800F0F1F8C7E90A01554800F01EF9C7E90801D7E90A23D7E9020104F09CFB03460C46184621464FF000024D4B04F047FD034666
:400B00000C4625461C464FF000024A4BD7E9080104F03CFD02460B462046294604F082FB03460C46C7E906344FF000034FF00004C7E91034BB79002B09D0D7E90C23D7E906
:400B4000100104F071FB03460C46C7E91034FB79002B09D0D7E90623D7E9100104F064FB03460C46C7E910344FF00002324BD7E9100104F035FE03460C46184621464FF00C
:400B800000022E4B04F002FD03460C461846214602F0AEF803460C461846214604F0A6FF03467B617B69002BB8BF5B420A2B01DD7B6900E000237B617B69002BCCBF0123FA
:400BC0000023FB747B69002BB8BF5B42184604F077FC13A3D3E90023FFF7CAFC4FF000024FF00003FFF7AAFC03460C461846214604F07CFF0246FB7C19461046FFF750FC86
:400C000000BF4837BD46B0BD8FD23AE445AA183F9A99999999991940E86A2BF697DD833F0000000000E06F409881FF1FF881FF1F00003E4000002040000028400000704055
:400C400090B587B000AF78604FF000034FF00004C7E904340023FB6014E07B689B6C984703460C461A462346D7E9040104F0DCFA03460C46C7E90434012000F09DFCFB6846
:400C80000133FB60FB680E2BE7DD4FF00002084BD7E9040104F0A4FD03460C467A68C2E91034786800F046F800BF1C37BD4690BD00002E4090B583B000AF7860786800F03E
:400CC00039F8786800F06EF803460C46184621460C37BD4690BD00BF90B583B000AF7860786800F05FF803460C46184621460C37BD4690BD90B583B000AF7860786800F0F3
:400D000019F8786800F080F803460C46184621460C37BD4690BD00BF90B583B000AF7860786800F071F803460C46184621460C37BD4690BD90B585B000AF78600023FB60FE
:400D400029E07B689B6C98477B6803F14004D4E900341A46234604F065FA03460C467968FA68D2000A44C2E9003401F037FE0346184604F095FB03460C467968FA68043237
:400D8000D2000A44C2E900344FF4C87000F036FCFB680133FB60FB68032BD2DD00BF1437BD4690BD90B587B000AF78604FF000034FF00004C7E904340023FB6011E07A684A
:400DC000FB68DB00134418CB1A462346D7E9040104F02AFA03460C46C7E90434FB680133FB60FB68032BEADD4FF00002054BD7E9040104F0F5FC03460C46184621461C371A
:400E0000BD4690BD000010402DE9B0438AB000AF78604FF000024FF00003C7E908230023FB610023BB6183E0BB6901337A680433DB001344D3E900017A68BB690433DB0051
:400E40001344D3E9002304F0EDF902460B46C7E90423BB6901337A68DB001344D3E900017A68BB69DB001344D3E9002304F0DAF902460B46C7E902234FF000024FF00003FA
:400E8000D7E9040104F012FE0346002B4DD0BC68FB6823F000454FF00002354B2046294604F0E6FD0346002B3FD0BB6901337A68DB001344D3E900017A68BB69DB001344A8
:400EC000D3E9002304F0AEF902460B4690469946BB6901337A680433DB001344D3E900017A68BB690433DB001344D3E9002304F099F902460B464046494604F071FC02469F
:400F00000B461046194618A3D3E9002304F03EFB02460B46D7E9080104F086F902460B46C7E90823FB690133FB61BB690133BB61BB69022B7FF778AFF86904F0C1FA0346EC
:400F40000C461A462346D7E9080104F049FC03460C46C7E90834D7E90834184621462837BD46BDE8B08300BF00000000006AF84000407F4080B582B000AF786039603A6849
:400F80000021786804F011FE00BF0837BD4680BD80B584B000AFF860B9607A607A68B968F86804F0F7FD00BF1037BD4680BD00BF80B483B000AF0346FB71FEE780B487B021
:400FC00000AF7860396000233B6100237B6127E07B699B007A6813441B68BB60BB68FB73BB6823F0FF03BB6014E03B695B003A6813441B781A46BB68134419463B695B001B
:401000003A6813445B780B703B6901333B61FB7B013BFB73FB7B002BE7D17B6901337B617B69202BD4D900BF1C37BD4680BC704780B582B000AF454B01221A80444B182278
:401040001A70444B01221A80434B18221A70434B01221A80424B18221A70424B01221A80414B18221A70414B4F221A80404B18221A70404BEF221A803F4B18221A703F4B1E
:401080004FF49C721A803E4B18221A703D4B45F6BF521A803C4B18221A703C4B02221A704FF0402308221A70394B03221A70394B394A1278D2B21A70384B08221A80384B18
:4010C00041F251221A800023FB7019237B6014E0FB785B00DAB2334B1B78DBB203F00103DBB21343DBB203F00303FB704FF4F07001F01EFD7B68013B7B607B68002B02D0CB
:40110000FB78032BE4D17B68002B02D10320FFF74FFF254B4FF480721A80234B07221A70224B00221A70224B48221A701E4B00221A70204B02221A701F4B1B781E4BFF2282
:401140001A7000BF0837BD4680BD00BF80400040824000408440004086400040884000408A4000408C4000408E40004090400040924000409440004096400040984000404C
:401180009A4000409C4000409E4000400043004000420040A14600400801004922420040204200402542004004400040064000400840004001400040A243004080B582B0D1
:4011C00000AF1F4B1B78FB711E4B1B78BB711E4B1B787B711D4AFB7903F00703DBB213701B4AFB791B09DBB21370164ABB7943F00303DBB21370144A7B7943F00303DBB2DD
:401200001370144B01221A70134B40221A70134B40221A70124B10221A70124B20221A700A2000F0EBF9084A7B791370054ABB7913700D4B44221A7000BF0837BD4680BDF6
:40124000CF010049F8460040F94600406E5800406F5800403D510040095900400B590040285B00402B5B00407658004080B586B000AF72B6514A514B1B78DBB243F00403CD
:40128000DBB213700023FB7513E0FA7D13465B0013445B004A4A13443B613B691A683B699B889BB219461046FFF764FEFB7D0133FB75FB7D082BE8D90023FB751CE0FA7D5F
:4012C00013469B0013445B003E4A1344FB60FB681B68BB60FB685B687B60FB681A7A5B7A1B0213437B807B881A467968B868FFF74FFEFB7D0133FB75FB7D002BDFD0324942
:401300004FF09040FFF75AFE304B314A1A60314A304B1B78DBB243F00203DBB213702E4A2D4B1B78DBB243F00203DBB213702B4A2A4B1B78DBB243F04003DBB21370284A28
:40134000274B1B78DBB243F01003DBB213700A2224492548FFF71CFE082224492448FFF717FE082223492448FFF712FE082223492348FFF70DFE082222492348FFF708FE5B
:40138000224A224B1B78DBB243F00803DBB213701F4B61221A70FFF74BFE1D4B81221A701C4B01221A70FFF709FF0E220B491A48FFF7EEFD00BF1837BD4680BDE846004006
:4013C00068640000A064000084000048D8020140040404C40350014013500140A0430040C2430040AC0C004800510040B80C004812510040C00C004822510040C80C0048A3
:4014000032510040D00C004862510040224300400048004004000840B043004080B400AFFEE700BF80B584B000AF7860104B1A687B6813441A460F4BD31AB3F5805F09DC85
:401440000B4B1B68FB600A4B1A687B681344084A136007E004F072FB02460C2313604FF0FF33FB60FB6818461037BD4680BD00BFCC80FF1F5883FF1F80B586B000AF224B73
:401480007B61224B3B61204B7B6135E03B691B68FB603B695B68BB603B699B683B6000237B600CE0FB681A68BB681A60BB680433BB60FB680433FB607B6804337B607A68F8
:4014C0003B689A42EED13B69DB683B6000237B6008E0BB6800221A60BB680433BB607B6804337B607A683B689A42F2D13B6910333B617B69013B7B617B69002BC6D104F0E0
:4015000023FBFEF7E3FDFEE7010000000C67000080B582B000AF184B184A1A60184A184B1B6843F40073136000237B600FE07B68032B04D8134A7B6852F8233000E0124BB1
:4015400012497A6841F822307B6801337B607B682F2BECD90E4B1B78DAB20E4B1A700E4B0A4A1A60FFF782FE0C4B00221A6000BF0837BD4680BD00BF0CED00E00004FA05EB
:4015800014ED00E0000000001D1400000080FF1FBC760040C480FF1F08ED00E0C080FF1F80B483B000AF0346FB7101BE00BF0C37BD4680BC704700BF80B582B000AF786045
:4015C00008E00C4B1B68184601F0B2FA7B68A3F500437B607B68B3F5004FF2D8064B1B687A6802FB03F3184601F0A2FA00BF0837BD4680BDDC80FF1FD480FF1F80B582B0CC
:4016000000AF0346FB80FB88054A127802FB03F3184601F08DFA00BF0837BD4680BD00BFD880FF1F80B584B000AF03463960FB710F4B1B68FB60FB791F2B02D90020FFF752
:40164000AFFFFB7903F01F0310339B00FA6813441B68BB60FB7903F01F0310339B00FA6813443A681A60BB6818461037BD4680BD08ED00E080B582B000AF03460A46FB71CA
:401680001346BB71BB79072B02D90020FFF788FFFB791F2B02D90020FFF782FFFB7903F01F0303F1604303F56443BA795201D2B21A7000BF0837BD4680BD00BF80B500AF63
:4016C0002820FFF779FF032000F0D0F90520FFF773FF032000F0CAF90F20FFF76DFF032000F0C4F90120FFF767FF022000F0BEF90520FFF761FF062000F0A6F80E2000F001
:40170000A3F82C2000F0A0F8082000F09DF8012000F09AF80C2000F097F8032000F094F80520FFF749FF00BF80BD00BF80B500AF0C2000F089F8024B01221A7000BF80BD0B
:401740007781FF1F80B500AF064B1B78002B04D1FFF7B4FF034B01221A70FFF7E7FF00BF80BD00BF7881FF1F80B582B000AF03460A46FB711346BB71FB79032B26D801A256
:4017800052F823F095170000A3170000B1170000BF170000BB79803BDBB2184600F054F815E0BB79403BDBB2184600F04DF80EE0BB796C3BDBB2184600F046F807E0BB79F1
:4017C0002C3BDBB2184600F03FF800E000BF00BF0837BD4680BD00BF80B584B000AF78600123FB737B681B78BB730BE0BB7B184600F010F8FB7B7A6813441B78BB73FB7B51
:401800000133FB73BB7B002BF0D100BF1037BD4680BD00BF80B584B000AF0346FB7100F02DF8FB791B09FB73FB7B184600F0E2F8FB7903F00F03FB73FB7B184600F0DAF8DC
:4018400000BF1037BD4680BD80B584B000AF0346FB7100F013F8FB791B09FB73FB7B184600F004F9FB7903F00F03FB73FB7B184600F0FCF800BF1037BD4680BD80B582B047
:4018800000AF4FF4CA737B60554A554B1B78DBB223F07F03DBB21370524B1B78DBB223F00F03FB704F4AFB7843F00F03DBB213704D4B1B78DBB223F00F03FB704A4AFB781D
:4018C00013704A4B1B78DBB223F00F03FB70474AFB781370424A424B1B78DBB223F02003DBB213703E4A3E4B1B78DBB243F04003DBB213700020FFF781FE394A384B1B7835
:40190000DBB243F01003DBB213700120FFF776FE374B1B78FB70324A314B1B78DBB223F01003DBB213700020FFF768FEFB7803F00803FB702A4A2A4B1B78DBB243F01003C4
:40194000DBB213700120FFF759FE254A244B1B78DBB223F01003DBB21370FB78002B02D10A20FFF74BFE7B68013B7B60FB78002B02D07B68002BBDD1194A194B1B78DBB2EE
:4019800023F04003DBB21370154A154B1B78DBB223F07F03DBB21370124A124B1B78DBB223F00F03DBB213700F4B1B78DBB223F00F03FB700C4AFB7843F00F03DBB2137007
:4019C0000A4B1B78DBB223F00F03FB70074AFB7843F00F03DBB2137000BF0837BD4680BD205100402251004023510040245100402151004080B582B000AF0346FB711A4ADD
:401A0000194B1B78DBB243F02003DBB21370164A154B1B78DBB223F04003DBB213700020FFF7ECFD104A104B1B78DBB223F00F03DBB213700C490C4B1B78DAB2FB791343D8
:401A4000DBB243F01003DBB20B700120FFF7D6FD054A054B1B78DBB223F01003DBB2137000BF0837BD4680BD2051004080B582B000AF0346FB71154A144B1B78DBB223F001
:401A80006003DBB21370114A104B1B78DBB223F00F03DBB213700D490C4B1B78DAB2FB791343DBB243F01003DBB20B700120FFF7A5FD064A054B1B78DBB223F01003DBB20B
:401AC000137000BF0837BD4680BD00BF2051004080B586B000AF78600A23FB75FB7D07F118021344002203F8102CFB7D013BFB751CE079681E4BA3FB0123DA0813469B00EA
:401B000013445B00CA1AD3B23033BB75FB7D07F118021344BA7D03F8102C7B68144AA2FB0323DB087B60FB7D013BFB757B68092BDFD879680E4BA3FB0123DA0813469B0022
:401B400013445B00CA1AD3B23033BB75FB7D07F118021344BA7D03F8102CFB7D07F1080213441846FFF738FE00BF1837BD4680BDCDCCCCCC80B500AF064B1B78002B04D1C6
:401B800000F00AF8034B01221A7000F025F800BF80BD00BF7981FF1F80B400AF094B72221A70094B20221A70084B06221A70084B47221A70074B00221A7000BFBD4680BC9C
:401BC000704700BF816400408264004029650040396500408A65004080B582B000AF00F0AFFF0346FB71114A104B1B78DBB243F02003DBB213700E4A0D4B1B78DBB243F0A1
:401C00001003DBB213700B4A0A4B1B78DBB243F01003DBB2137000F099FAFB79184600F093FF00BF0837BD4680BD00BF91640040926400409A65004080B483B000AF034684
:401C4000FB7100BF074B1B78DBB203F00403002BF8D1054AFB79137000BF0C37BD4680BC704700BF6A6500404964004080B584B000AF78600023FB810C4B1B78002B10D05C
:401C800009E0FB897A6813441B781846FFF7D4FFFB890133FB81FB897A6813441B78002BEFD100BF1037BD4680BD00BF7981FF1F80B400AF094A094B1B78DBB243F0200338
:401CC000DBB21370064A064B1B78DBB243F02003DBB2137000BFBD4680BC7047A2430040B243004080B582B000AF786000F03CF8786800F009F8072000F018F800F028F884
:401D000000BF0837BD4680BD80B485B000AF7860054B1B68FB60FB684C337A681A6000BF1437BD4680BC704708ED00E080B483B000AF0346FB71054AFB795B01DBB213703A
:401D400000BF0C37BD4680BC704700BF03E400E080B400AF034B08221A6000BFBD4680BC704700BF00E100E080B400AF034B08221A6000BFBD4680BC704700BF80E100E051
:401D800080B500AF064B02221A6006490120FFF749FC07210120FFF76DFC00BF80BD00BF80E100E0ED1E000080B582B000AF0F2000F088F800F078F800F0C2FE0346FB717C
:401DC000094A094B1B78DBB243F01003DBB21370FB79184600F0B8FE044B02221A6000BF0837BD4680BD00BF9865004000E100E080B500AF00F0A8FC4FF4004000F0D2FCAD
:401E0000074B00221A60074B1B78002B04D1FFF7B7FF044B01221A70FFF7C6FF00BF80BD7C81FF1F7B81FF1F80B582B000AF0D4B02221A6000F0C6FC0346FB80FB88A3F59E
:401E400000439BB2BB80B7F90420074B1B6813443B60064B02221A603B6818460837BD4680BD00BF80E100E07C81FF1F00E100E080B582B000AF7860084B02221A604FF48F
:401E8000004000F08FFC064A7B681360054B02221A6000BF0837BD4680BD00BF80E100E07C81FF1F00E100E080B400AF044B1B78DBB203F00F03DBB21846BD4680BC704781
:401EC0006865004080B483B000AF0346FB71FB7943F00703FB71044AFB79137000BF0C37BD4680BC704700BF8865004080B483B000AF144B1B78FB71FB7903F00103002BBA
:401F000007D0114B1B6803F5FF437F330E4A13600AE0FB7903F00203002B05D00A4B1B68A3F50043084A1360FB7903F00403002B02D0054B00221A6000BF0C37BD4680BCCE
:401F4000704700BF686500407C81FF1F80B500AF064B04221A6006490220FFF763FB07210220FFF787FB00BF80BD00BF80E100E0B920000080B582B000AF0F2000F088F8DD
:401F800000F078F800F0DCFD0346FB71094A094B1B78DBB243F01003DBB21370FB79184600F0D2FD044B04221A6000BF0837BD4680BD00BF9764004000E100E080B500AFC9
:401FC00000F02EF94FF4004000F058F9074B00221A60074B1B78002B04D1FFF7B7FF044B01221A70FFF7C6FF00BF80BD8481FF1F8081FF1F80B582B000AF0D4B04221A6084
:4020000000F04CF90346FB80FB88A3F500439BB2BB80B7F90420074B1B6813443B60064B04221A603B6818460837BD4680BD00BF80E100E08481FF1F00E100E080B582B06A
:4020400000AF7860084B04221A604FF4004000F015F9064A7B681360054B04221A6000BF0837BD4680BD00BF80E100E08481FF1F00E100E080B400AF044B1B78DBB203F068
:402080000F03DBB21846BD4680BC70476764004080B483B000AF0346FB71FB7943F00703FB71044AFB79137000BF0C37BD4680BC704700BF8764004080B483B000AF144B9E
:4020C0001B78FB71FB7903F00103002B07D0114B1B6803F5FF437F330E4A13600AE0FB7903F00203002B05D00A4B1B68A3F50043084A1360FB7903F00403002B02D0054B55
:4021000000221A6000BF0C37BD4680BC704700BF676400408481FF1F80B400AF094A094B1B78DBB243F00103DBB21370064A064B1B78DBB243F00103DBB2137000BFBD4663
:4021400080BC7047A2430040B243004080B400AF094A094B1B78DBB243F04003DBB21370064A064B1B78DBB243F04003DBB2137000BFBD4680BC7047A2430040B24300408C
:4021800080B582B000AF1C4B1B78DBB223F00703FB71194AFB791370174B1B78DBB223F00303FB71144AFB79137000F0B3F84FF4004000F08FF84FF4004000F05FF80020C4
:4021C00000F040F800F04EF84FF4004000F092F800F0B6FC0346BB71084A084B1B78DBB243F01003DBB21370BB79184600F0ACFC00BF0837BD4680BD74640040936400409B
:4022000080B400AF054A054B1B78DBB263F07F03DBB2137000BFBD4680BC70477464004080B500AF064B1B78002B04D1FFF7A8FF034B01221A70FFF7E3FF00BF80BD00BF57
:402240008881FF1F80B483B000AF0346FB71044AFB79137000BF0C37BD4680BC704700BF8364004080B400AF034B1B78DBB21846BD4680BC704700BF6364004080B483B077
:4022800000AF0346FB80044AFB88138000BF0C37BD4680BC704700BF0468004080B400AF044B1B78044B1B889BB21846BD4680BC704700BF026400408468004080B400AF18
:4022C000034B1B889BB21846BD4680BC704700BF8468004080B483B000AF0346FB80044AFB88138000BF0C37BD4680BC704700BF4468004080B483B000AF0346FB80044A58
:40230000FB88138000BF0C37BD4680BC704700BF6468004080B500AF01E0FFF7CFFFFFF7A1FF034603F04003002BF6D100BF80BD80B500AF064B1B78002B04D100F00AF87E
:40234000034B01221A7000F029F800BF80BD00BF8981FF1F80B500AF102000F08BF907210020FFF787F90A490020FFF75BF9094A084B1B78DBB243F00603DBB213700C202D
:4023800000F086F8044B00221A8000BF80BD00BF69260000095900404883FF1F80B582B000AF00F0CDFB0346FB712E4A2D4B1B78DBB243F00203DBB213702B4A2A4B1B7877
:4023C000DBB243F00203DBB21370284A274B1B78DBB243F00803DBB21370254A244B1B78DBB243F00803DBB21370224B1B78BB71BB7943F00203BB71BB7943F00103BB710F
:402400001C4ABB7913701C4B04221A701B4A1B4B1B78DBB223F04003DBB21370174A174B1B78DBB243F00303DBB21370144B08221A70144B02221A70134A134B1B78DBB2F0
:4024400043F00803DBB213700A20FFF7D7F80F4B01221A60FB79184600F076FB00BF0837BD4680BDAB430040BB430040A2430040B24300400B5900400E5900400D59004000
:4024800008590040164600402F5B004080E200E080B584B000AF0346FB71FB790A2B07D00C2B02D0082B06D008E0C423FB730BE08423FB7308E04423FB7305E0C423FB7340
:4024C0000020FFF76DF800BF054AFB7B1370FB79184600F03FF800BF1037BD4680BD00BF0A59004080B400AF054A054B1B78DBB243F00103DBB2137000BFBD4680BC70471B
:402500000859004080B483B000AF084B1B88FB80074B1B881BB29BB2FA88D31A9BB21BB218460C37BD4680BC704700BFA25B00405083FF1F80B483B000AF0346FB80044A2F
:40254000FB88138000BF0C37BD4680BC704700BF4883FF1F80B584B000AF0346FB71FB790A2B08D00C2B02D0082B08D00BE04FF48053FB600DE04FF48063FB6009E04FF44D
:402580008073FB6005E00023FB600020FFF708F800BF0C4B00221A80FB6842F2107202FB03F303F6C413084A82FB0312D212DB17D31A064A1360064B00221A8000BF103729
:4025C000BD4680BD4A83FF1FAD8BDB684C83FF1F5083FF1FB0B586B000AF0346FB801E4B1B881BB2002B09D01B4B1B881BB21A4613469B0013445B007B6102E0174B1B68ED
:402600007B61174B1B881BB2FA889BB2D31A9BB2FB80B7F90630184602F052FF4FF00002104B02F0B3FF03460C4625461C46786902F046FF02460B462046294603F0D0F8F8
:4026400003460C46C7E90234D7E90234184621461837BD46B0BD00BF4A83FF1F4C83FF1F4883FF1F0000244080B400AF00BFBD4680BC704780B483B000AF0346FB710949C6
:40268000084B1B78DBB25AB297F9073023F007035BB213435BB2DBB20B7000BF0C37BD4680BC70478E40004080B582B000AF1C4B1B78DBB223F00703FB71194AFB791370B9
:4026C000174B1B78DBB223F00303FB71144AFB79137000F0B3F84FF4004000F08FF84FF4004000F05FF8002000F040F800F04EF84FF4004000F092F800F022FA0346BB7123
:40270000084A084B1B78DBB243F01003DBB21370BB79184600F018FA00BF0837BD4680BD746500409465004080B400AF054A054B1B78DBB263F07F03DBB2137000BFBD4611
:4027400080BC70477465004080B500AF064B1B78002B04D1FFF7A8FF034B01221A70FFF7E3FF00BF80BD00BF8A81FF1F80B483B000AF0346FB71044AFB79137000BF0C371F
:40278000BD4680BC704700BF8465004080B400AF034B1B78DBB21846BD4680BC704700BF6465004080B483B000AF0346FB80044AFB88138000BF0C37BD4680BC704700BFD9
:4027C0000C68004080B400AF044B1B78044B1B889BB21846BD4680BC704700BF066400408C68004080B400AF034B1B889BB21846BD4680BC704700BF8C68004080B483B061
:4028000000AF0346FB80044AFB88138000BF0C37BD4680BC704700BF4C68004080B483B000AF0346FB80044AFB88138000BF0C37BD4680BC704700BF6C68004080B500AF29
:4028400001E0FFF7CFFFFFF7A1FF034603F04003002BF6D100BF80BD80B400AF094A094B1B78DBB243F00203DBB21370064A064B1B78DBB243F00203DBB2137000BFBD46F3
:4028800080BC7047A2430040B243004080B400AF094A094B1B78DBB243F00403DBB21370064A064B1B78DBB243F00403DBB2137000BFBD4680BC7047A2430040B2430040BD
:4028C00080B582B000AF1D4B1B78DBB223F00703FB711A4AFB7943F00103DBB21370174B1B78DBB223F00303FB71144AFB79137000F0A8F86FF0010000F088F8002000F0C6
:402900005FF8002000F040F800F04EF8802000F08BF800F015F90346BB71094A084B1B78DBB243F01003DBB21370BB79184600F00BF900BF0837BD4680BD00BF7664004083
:402940009765004080B400AF054A054B1B78DBB263F07F03DBB2137000BFBD4680BC70477664004080B500AF064B1B78002B04D1FFF7A6FF034B01221A70FFF7E3FF00BFD0
:4029800080BD00BF8B81FF1F80B483B000AF0346FB71044AFB79137000BF0C37BD4680BC704700BF8765004080B400AF034B1B78DBB21846BD4680BC704700BF676500408E
:4029C00080B483B000AF7860034A7B68136000BF0C37BD4680BC70470465004080B400AF034B1B78034B1B681846BD4680BC7047046500404465004080B400AF024B1B6877
:402A00001846BD4680BC70474465004080B483B000AF7860034A7B68136000BF0C37BD4680BC70472465004080B483B000AF7860034A7B68136000BF0C37BD4680BC70477E
:402A40003465004080B500AF01E0FFF7D5FFFFF7ABFF034603F04003002BF6D100BF80BD80B582B000AF786000F03CF8786800F009F8072000F018F800F028F800BF0837C9
:402A8000BD4680BD80B485B000AF7860054B1B68FB60FB6850337A681A6000BF1437BD4680BC704708ED00E080B483B000AF0346FB71054AFB795B01DBB2137000BF0C37A5
:402AC000BD4680BC704700BF04E400E080B400AF034B10221A6000BFBD4680BC704700BF00E100E080B400AF034B10221A6000BFBD4680BC704700BF80E100E080B400AFD2
:402B0000094A094B1B78DBB243F01003DBB21370064A064B1B78DBB243F01003DBB2137000BFBD4680BC7047A2430040B24300400230800803D000BF01380046FCD1704703
:402B4000EFF3108072B6704780F31088704700BF30B5214A21F00043934287B01BDD1F4A934205DD02460B4602F05CFB07B030BD02AA01F089F900F0030001281AD00228E6
:402B80000FD008B3DDE9020101230093DDE9042302F072F9EAE70022002301F051FC07B030BDDDE90423DDE9020101F049FC01F10041DBE70090DDE90423DDE9020102F0A0
:402BC0005BF901F10041D1E7DDE90423DDE9020101F036FCCAE700BFFB21E93FFFFFEF7FC1F30A522DE9F843A2F2FF36132E0B4604460D46884607461CDC002E3FDB3A4A65
:402C0000864642FA06F901EA0902024317D034A3D3E9002302F008FB0022002302F046FF20B1002D40DB28EA0905002738462946BDE8F883332E06DDB6F5806F2FD0204694
:402C40001946BDE8F883A2F213424FF0FF3929FA02F910EA090FF2D021A3D3E9002302F0E3FA0022002302F021FF0028DED0002D20DB454627EA090738462946D8E718A3A9
:402C8000D3E9002302F0D0FA0022002302F00EFF0028CBD0002D18DB00273D46C6E702460B4602F0C1FACCE74FF4801343FA06F6B044B8E7142E10D00123C6F1340603FA2C
:402CC00006F6371928BF9844D3E725F00042074B224318BF1D460027A8E705F10108C8E79C7500883CE4377EFFFF0F000000F0BFF8B5C1F30A56A6F2FF35132D0A460B46C7
:402D00000446864611DC002D2EDB0F461F4929410A4225D04FF400232B413B4423EA01030026194634462046F8BD332D05DDB5F5806F1FD011462046F8BDA6F213464FF00A
:402D4000FF3121FA06F63042F4D00122C5F1330502FA05F52D1828BF9B1825EA0606E0E70028D7D11146E6E7013501F0004307D00026D6E702460B4602F056FA0446D2E718
:402D800043F07F5343F440130026CAE7FFFF0F002DE9F04F8BB01D4680468946144600F0F1F92A4B064693F900A00F46BAF1FF3F2FD022462B462046294602F081FE40BBA0
:402DC00042464B464046494602F07AFE834600BB002200232046294602F040FEC8B11C4A0123CDE90289CDE90445CDF820B001920093BAF1000F11D1CDE90689684602F0EE
:402E0000FBF8B0B1089BDBB9DDE906010BB0BDE8F08F304639460BB0BDE8F08F002200231046194602F0DCFCBAF1020FCDE90601E4D102F083FE21230360089B002BE3D0FA
:402E400002F07CFE089B0360DEE700BFE080FF1FAC6400002DE9F04F8DB006460F4614461D4600F0ADFADFF81093CDE9000199F90080B8F1FF3F46D022462B462046294659
:402E800002F01EFE834600283DD132463B463046394602F015FE8246002874D1304639460022002302F0DAFD002833D0002200232046294602F0D2FD8346B8B1A94A01238B
:402EC00000200021CDF828A0CDE90467CDE90645CDE9080103920293B8F1000F6CD0A24B0022104619460DB0BDE8F08F2046294602F07CF838B1002200232046294602F030
:402F0000B7FD00286AD1DDE90023104619460DB0BDE8F08FDDE9000102F068F8804600287DD0DDE900014FF0000A4FF0000B52465B4602F093FD0028E5D03046394602F0CE
:402F400055F80028DFD02046294602F04FF80028D9D099F90030834804210022022BCDE90467CDE90645CDE908AB039002910A9204D002A802F040F8002847D102F0DEFD4B
:402F80002223036042E0002200232046294602F065FD0028B7D0744B724800220121B8F1020FCDF828B0CDE90467CDE90645CDE9082303900291A8D002A802F01DF800289C
:402FC0007ED00A9B43B302F0B9FDDDE908230A990160104619460DB0BDE8F08F614999F900300122CDF828B0CDE90467CDE9064503910292002B68D05C490020022BCDE934
:40300000080166D102F09AFD212303600A9B1BB102F094FD0A9B0360DDE9082375E73046394601F0E3FF00283FF47BAF2046294601F0DCFF00283FF474AFDDE9002310462C
:40304000194602F03DFD00286FD1464B99F90080039303230A90CDE90467CDE906450293B8F1000F3BD1DFF814B14FF0604A0022002330463946CDE908AB02F0F9FC0028B2
:403080003FF477AF00223A4B2046294602F07EFA04460D4601F0B8FF02460B462046294602F0DCFC00283DD1324B4FF06042CDE9082399F90080B8F1020F7FF45AAF5DE753
:4030C00002F03CFD212303607BE700230024CDE9083402A801F090FF002897D192E7DFF8A0B04FF0000A0022002330463946CDE908AB02F0BDFC0028DDD000221C4B2046AE
:40310000294602F043FA04460D4601F07DFF02460B462046294602F0A1FC18B9134B0022CDE9082399F90080C5E70E4A99F900900123CDF82880CDE90467CDE90645039238
:403140000293B9F1000FC0D0002200231046194602F046FBB9F1020FCDE908013FF452AFB7E700BFB46400000000F03F0000F0FF0000E03FFFFFEFC7E080FF1FFFFFEF477E
:403180000000F07F2DE9F84F23F0004952EA090620D001F00046834F81EA0608B84519DC57421743DFF814B249EAD7775F45944610D8C8451D4682460446964612DC0FDB8B
:4031C00090420DD30ED1784BF60F03EBC60393E8030005E002F0DAF902460B4602F000FBBDE8F88FB8F5801F0EDAB8F1000F40F09C80BAF1000F53466C4909DD5B00002B39
:4032000001F1FF31FADC03E04FEA2851A1F2FF31B9F5801F0EDAB9F1000F40F09F80BCF1000F6346614F09DD5B00002B07F1FF37FADC03E04FEA2957A7F2FF375C4B99428F
:4032400056DBC8F3130343F48013594A97425EDBC5F3130545F48015C91B07E052EA000313D0C30F03EB420344000139CEEB04005A1B89B1744538BF02F1FF32002AEDDA8E
:40328000E20F02EB43036400EFE7474BF60F03EBC60696E80300A3E71546744538BF02F1FF35002DB4BF1D46CEEB040455EA0403EBD0404A954208DCE30F03EB4505954217
:4032C00007F1FF374FEA4404F6DD394B9F424EDA374AD21B142A54DCC2F12003D44005FA03F3234345FA02F242EA0601184677E72F4C641A1F2C2BDCC4F1200308FA04F85B
:403300002AFA03F343EA08030AFA04F49DE72848C01B1F2815DCC0F1200209FA00F52CFA02F215430CFA00FE96E74FEAC823002B1F497FF76DAF5B00002B01F1FF31FADCB3
:4033400066E71D4D4FF0000EED1B0CFA05F583E7194B00245B1A0AFA03F376E7144F4FEAC9235B00002B07F1FF37FADC66E7A5F580152E4307F2FF3746EA07532046194606
:403380002EE71F2A07DCC2F12003D4409D4045EA04033246A8E7084B3246DB1B45FA03F3A2E700BFFFFFEF7FB8640000EDFBFFFF02FCFFFFFFFF0F00E2FBFFFF0000F07FC9
:4033C0002DE9F04F23F0004858EA020993B03CD0714C21F00046A64283460D460CDD06F1404606F5801656EA0B0038D183466B49584613B0BDE8F08F9A4696462BD0A04580
:40340000EDDC654CA04578D0002D0F468146CDE9002376DB0024BEF1000F27D15E4B984500F08B805D4B984552D0BAF1804F00F0C9835B4B9A4519D1002D17DB484639461F
:4034400013B0BDE8F04F00F035BFCB465846534913B0BDE8F08F0028C1D1B045D1DD514813B0BDE8F04F01F0C9BD00244846394601F0B8FDBBF1000F1CD0ED0F013D54EA85
:40348000050370D0484B984540F3948003F10473984540F30D84454B9E4270DDBAF1000F70DD3BA3D3E900231046194602F06EF883469DE726B1394B25F040429A42DCD1AB
:4034C000BAF1000FC0F2B783002D08DB83468FE7BAF1000FC0F25E84CB46394688E706F1404606F5801656EA040300F08384012CECD101F1004183467AE7BEF1000F83D0E6
:403500006DE72B4B98452CDCA3F15473984581DD4FEA2853A3F2FF33142B40F35384C3F134032EFA03F202FA03F39E457FF472AF02F00102C2F102046DE706F1404303F59D
:40354000801353EA0B0300F03A83184B9E4240F36783BAF1000F15DBDDE900349B46214646E7022457E74A4648463B46394601F059FE02460B4602F033F9834638E7BAF133
:40358000000F8EDB4FF0000B594631E7AFF300809C7500883CE4377E0000F07F0000F03F0000E03FB06400000000E041FFFFEF3FFFFF3F43B6F5801F4FF0000205DAD04BDF
:4035C00001F0E4FF0E466FF03402DFF844E33315C6F31306A3F2FF3346F07F57764503EB020A47F4401740F3C983C64B00229E4240F304840023CDE90823CDE90C23C24B99
:403600000022CDE906230AF1010AA7F5801700263946DDE90623CDE90A0101F003FEDDE9062380468946DDE90A0101F0FDFD02460B460020B44902F0D3F80A460146134666
:40364000CDE90E1202464946404601F09FFF8C4683467B1043F0005303F5002399190020CDE904BC06460F464FF0000B6146584632463B46CDE910BCCDE9020101F086FF9F
:4036800002460B464046494601F0CCFDDDE90623804689463046394601F0C4FD02460B46DDE90A0101F0BEFDDDE9022301F06EFF02460B464046494601F0B4FDDDE90E23D1
:4036C00001F064FFDDE90478CDE906013A4643463846414601F05AFF77A3D3E9002306460F4601F053FF76A3D3E9002301F09CFD32463B4601F04AFF73A3D3E9002301F0A7
:4037000093FD32463B4601F041FF71A3D3E9002301F08AFD32463B4601F038FF6EA3D3E9002301F081FD32463B4601F02FFF6CA3D3E9002301F078FD3246804689463B46EA
:403740003046394601F022FF02460B464046494601F01CFFDDE9022306460F46DDE9040101F062FDDDE9062301F010FF32463B4601F05AFDDDE902678046894632463B46F4
:403780003046394601F002FF0022604BCDE90A0101F04AFD42464B4601F046FDDDE910BC0F46DDE902015A463B46CDE90EBC5E4601F0ECFE0022CDE90201544B30463946D0
:4037C00001F030FDDDE90A2301F02CFD02460B464046494601F026FDDDE9042301F0D6FE324680468946DDE906013B4601F0CEFE02460B464046494601F016FD80468946CB
:4038000002460B46DDE9020101F00EFDDDE90EBC35A3D3E900235846CDE906BC5E460F4601F0B4FEDDE90223CDE904013046394601F0F8FC02460B464046494601F0F2FC24
:403840002BA3D3E9002301F0A1FE2BA3D3E90023804689463046394601F098FE02460B464046494601F0E0FCDDE90C2301F0DCFC80465046894601F023FE06460F46DDE970
:40388000040142464B4601F0CFFCDDE9082301F0CBFC32463B4601F0C7FCDDE906BC324658463B46DA468B4601F0BCFCDDE9082330E000BFAFF30080EF4E454A287ECA3FC2
:4038C00065DBC9934A86CD3F01411DA96074D13F4D268F515555D53FFFAB6FDBB66DDB3F033333333333E33F000000E009C7EE3FFD033ADC09C7EE3FF5015B14E02F3EBE9E
:403900000000404379B60B000000F03F000008408E98030001F086FCDDE9042301F082FC02460B464046494601F07CFC80468946DDE90012013C54EA050314BFD64CD74C3C
:403940000023CDE904340B461446CDE9023400230293DDE9024508462B461146224601F061FC52465B4601F011FEDDE9002306460F464046494601F009FE02460B4630462F
:40398000394601F051FC06460F4622462B4650465946CDE9006701F0F9FD0B460246804689463046394601F03FFCBD4B064699420D460C4640F30E8101F13F4303F5E00363
:4039C000034340F0F081A0A3D3E90023DDE9000101F02AFC424682468B464B463046294601F020FC02460B465046594602F05EF8002840F0D8812F463B154FF48012A3F246
:403A0000FE3342FA03F32344C3F30A52A54EA2F2FF321641C3F3130B0020C2F1140523EA06014BF4801B02460B46002C4BFA05FB40464946B8BFCBF1000B01F0F3FB024669
:403A40000B4680468946DDE9000101F0EDFB4FEA0B5A00247EA3D3E9002320460D4601F095FD424606460F464B462046294601F0D9FB02460B46DDE9000101F0D3FB76A336
:403A8000D3E9002301F082FD75A3D3E90023804689462046294601F079FD02460B464046494601F0C1FB8046894602460B463046394601F0B9FB32463B4604460D4601F045
:403AC000B1FB02460B464046494601F0ABFB2246804689462B462046294601F057FD62A3D3E9002306460F4601F050FD60A3D3E9002301F097FB32463B4601F047FD5EA3F6
:403B0000D3E9002301F090FB32463B4601F03EFD5BA3D3E9002301F085FB32463B4601F035FD59A3D3E9002301F07EFB32463B4601F02CFD02460B462046294601F072FB77
:403B400006460F4602460B462046294601F01EFD0022CDE900014FF080433046394601F061FB02460B46DDE9000101F039FE424606460F464B462046294601F007FD424679
:403B80004B4601F051FB02460B463046394601F049FB22462B4601F045FB02460B4600203D4901F03FFB8A44BAF5801FC0F237815146DDE9042301F0E9FC834618E4F34622
:403BC000354915E44A4648463B46394601F0DEFC83460DE4344B21F000479F4240F30181324B0B4403430CD142464B4601F01AFB02460B46DDE9000101F044FF00283FF441
:403C0000FBAE23A3D3E90023DDE9040101F0BEFC1FA3D3E9002301F0B9FC8346FFF7E8BBBAF1000FBFF6AEACDDE900349B4604F10041FFF7DDBB02460B460020164901F0A6
:403C4000CFFD41E4AFF30080FE822B654715973C00000000432EE63FEF39FAFE422EE63F396CA80C615C20BED0A4BE726937663EF16BD2C541BDBB3E2CDE25AF6A56113FF3
:403C800093BDBE166CC1663F3E5555555555C53F59F3F8C21F6EA5010000F03F0000F0BFFFFF8F40FFFF0F00FFCB904000346F3F6F4B9E427FF763AC6E4B9E423FF7EEAB2F
:403CC00000226C4B01F0AEFA5BA3D3E9002306460F4601F05BFC5AA3D3E90023804689463046394601F052FC002282468B46624B3046394601F04AFC02460B4652A1D1E90D
:403D0000000101F08FFA32463B4601F03FFC02460B460020594901F085FA3246CDE902013B463046394601F031FC02460B46DDE9020101F02BFC46A3D3E9002301F026FCFE
:403D400002460B465046594601F06CFA02460B4606460F464046494601F066FA42464B46002082468B4601F05DFA02460B463046394601F057FA80468946D9E500220023FC
:403D8000CDE90823CDE90C233A4B00220026CDE906233DE44A463B460020364901F020FD8346FFF725BB2CA3D3E90023DDE9040101F0ECFB28A3D3E9002301F0E7FB83467C
:403DC000FFF716BBBEF1000F7FF44FABC3F1140348FA03F202FA03F3984524D07446FFF721BB264B9F423FF707AEDDE902349A469B462EE602460B46FFF7B9BB204B4FF4C1
:403E00008026CDE9062316A3D3E90023CDE9082315A3D3E90023CDE90C23FFF7F9BB5A4601F082F9C5E602F00102C2F10204FFF7F9BA00BFAFF30080000000604715F73F7D
:403E400044DF5DF80BAE543E555555555555D53FFE822B654715F73F9C7500883CE4377E0000004003B8E23F06D0CF43EBFD4C3EFEFFEF3F0000F03F0000D03F0000E03F5F
:403E80000000F83F000000002DE9F04F944C21F00047A7428FB040F381801446914A0E46974226DC84A3D3E90023002940F3A08101F0B8F98C4B80469F42894600F0838019
:403EC0007FA3D3E9002301F0ADF902460B464046C4E90023494601F0A5F979A3D3E9002301F0A0F90125C4E9020128460FB0BDE8F08F7E4A974240F383807D4A974258DCC6
:403F00003D15A5F21645A7EB05518B46824601F0EDFD01F0D5FA8046894642464B4650465946CDE9088901F07DF90022714B01F02DFB8B46824601F0D9FD01F0C1FA8046C7
:403F4000894642464B4650465946CDE90A8901F069F90022674B01F019FB00220023CDE90C0101F07BFD002800F06A81002340464946002201F072FD002814BF012302233D
:403F80005D480221019000912A46214608A800F07BFB002EC0F24A81054606E0C2E9000100250024C2E90245002528460FB0BDE8F08F02460B4601F035F90025C4E9020164
:403FC000C4E90001F1E740A3D3E9002301F02AF93FA3D3E9002306460F4601F023F902460B463046C4E90023394601F01BF938A3D3E9002301F016F90125C4E90201D4E748
:4040000000F0F0FF34A3D3E900238046894601F0BDFA0022394B01F007F901F067FD054601F04EFA24A3D3E90023CDE9040101F0ADFA02460B464046494601F0F3F820A3F8
:40404000D3E9002382468B46DDE9040101F09EFA1F2DCDE9020155DC294B6A1E53F822309F424FD002460B465046594601F0DAF802460B4681468846C4E900234A464346FD
:404080005046594601F0CEF8DDE9022301F0CAF802460B46002EC4E9022386DA4A4608F1004301F1004184E80C00E160A0606D427BE700BFAFF3008000004054FB21F93FEB
:4040C0003163621A61B4D03D0000601A61B4D03D7370032E8A19A33B83C8C96D305FE43FFB21E93F7BD90240FB21F93FFB213941FFFFEF7F00007041486500000000E03F7D
:40410000C8640000DDE902235046594601F08AF83F15C1F30A53FB1A102B81468846C4E90001ABDD58A3D3E90023DDE9040101F02DFA8046894602460B465046594601F02F
:4041400071F8CDE9060102460B465046594601F069F842464B4601F065F84DA3D3E9002380468946DDE9040101F010FA42464B4601F058F802460B46CDE90201DDE90601EF
:4041800001F050F80B4602468846C1F30A517F1A312F8146C4E9002372DD3FA3D3E90023DDE9040101F0F2F98046894602460B46DDE9060101F036F802460B4682468B46BD
:4041C000DDE9060101F02EF842464B4601F02AF833A3D3E9002380468946DDE9040101F0D5F942464B4601F01DF8CDE9020139E701F01AF82E4B80469F42894622D02AA332
:40420000D3E9002301F010F802460B464046C4E90023494601F006F823A3D3E9002301F003F84FF0FF35C4E90201BEE66268E36802F1004203F1004345426260E360B4E63A
:4042400003239DE610A3D3E9002300F0EDFF10A3D3E9002306460F4600F0E6FF02460B463046C4E90023394600F0DCFF08A3D3E9002300F0D9FF4FF0FF35C4E9020194E607
:40428000DDE906ABFAE600BF0000601A61B4D03D7370032E8A19A33B0000002E8A19A33BC14920259A837B393163621A61B4D03DFB21F93F2DE9F0415F4E0C46B6460E40D2
:4042C0007645054600F0988000290B46024674DD5FEA215E7FD0AEF2FF3EC3F313031EF0010F43F4801363D100273E4603EBD2710B444FEA6E0E520016204FF40011741879
:404300009C424FEAD2754FEA420202DC1B1B66180F44013805EB43034FEA5101EFD1844620244FF0004109E020D003EBD275013C4FEA51012B444FEA420220D09E4201EBF7
:404340000C05F1DA002D05EB010C09DBB0469542A3EB060300D9013B4646521B0844E4E7BCF1000FF2DB06F10108F0E7954217D8002D05EB010C49DB98460023ECE713432C
:4043800010D140087B1003F17F5303F50013FA0703EB0E57394648BF40F00040BDE8F0813346C2E7411C35D000F001031844E8E75B0003EBD273520096E721F00046064378
:4043C000ECD079BB8E46D30AAEF1150E5205002BF9D0DD0221D4002100E001465B00DC0201F10100F9D5C0F1200422FA04F42343C1EB0E0E82406EE702460B4601F0C6F883
:404400002A46234600F010FFBDE8F081BCF1000FA9DAB1E701372046B4E720244FF0FF310020E2E702460B4600F0FCFE02460B4601F0D6F9B2E700BF0000F07F000000003F
:404440002DE9F04F21F00046B6F1795F85B00C4692469B4605466BDA01F048FB002800F0E7802A4623462846214601F08FF874A3D3E900238046894601F088F872A3D3E99B
:40448000002300F0D1FE42464B4601F07FF870A3D3E9002300F0C6FE42464B4601F076F86DA3D3E9002300F0BFFE42464B4601F06DF86BA3D3E9002300F0B4FE42464B46C8
:4044C00001F064F868A3D3E9002300F0ADFE42464B4601F05BF8CDE900010022644B4046494601F053F8DDE9002306460F464046494601F04BF85246804689465B462846A5
:40450000214601F043F802460B464046494600F089FE02460B463046394600F083FE02460B460020534900F07DFE05B0BDE8F08F02460B4601F02AF841A3D3E900238046F6
:40454000894601F023F840A3D3E9002300F06CFE42464B4601F01AF83DA3D3E9002300F061FE42464B4601F011F83BA3D3E9002300F05AFE42464B4601F008F838A3D3E961
:40458000002300F04FFE42464B4600F0FFFF36A3D3E9002300F048FE4B46424600F0F6FF354BCDE900019E4297DD344B00229E4238DCA6F5001300202E4916461F4600F092
:4045C00031FECDE902010022294B4046494600F0DDFF32463B4600F025FEDDE9002306460F464046494600F0D1FF5246804689465B462846214600F0C9FF02460B46404677
:40460000494600F00FFE02460B463046394600F009FE02460B46DDE9020100F003FE05B0BDE8F08F164B0026CDE90223154FCAE71049002005B0BDE8F08F00BFAFF3008093
:40464000D43888BEE9FAA8BDC4B1B4BD9EEE213EAD529C804F7E923E9015CB19A001FA3E7751C1166CC1563F4C5555555555A53F0000E03F0000F03F3233D33F0000E93F8E
:404680000000E73F0000D23F2DE9F04F794CADF51D7D1F460B93D31E84FB0354DB17C3EBA403A69E744C23EAE37554F826406B1C26460994A3EB83037C1E0D95029402EBDE
:4046C000C3032D1B341904900A91089316D42C44013422AEA79F08E057F8250000F0F0FE0135A542E6E9020108D0002DF4DA013500200021A542E6E90201F6D1099B002B2E
:404700002FDB099B74AADDF8089002EBC30B0DF5E47A029B002BC0F295810B9B0026C3EB090824AB03EBC808049B0027A3F1080524AB03EBC904F5E9022374E8020100F03A
:4047400025FF02460B463046394600F06DFD444506460F46EFD1EAE90267DA4509F10109D7D1099B10A91D4603F18043023B9B001A1D0A440B440F920E939CAB03EBC503DA
:40478000002D53E928672BDD9CAB03EBC504A83C0DF13C0A0DF5E47B0022384B3046394600F0F4FE01F0A2F900F08AFE0022344B8046894600F0EAFE02460B463046394656
:4047C00000F030FD01F092F974E802234AF8040F4946404600F028FD5C4506460F46DBD1089C30463946224600F09EFC00224FF07F5306460F4600F0C9FEFEF7F1F900221B
:40480000204B00F0C3FE02460B463046394600F009FD0F46064601F069F9814600F050FE02460B463046394600F0FCFC002C06460F4640F3EE80681E10AB53F82030C4F16A
:40484000180243FA02F101FA02F29B1AC4F1170810AA42F82030894443FA08F8B8F1000F3DDD002D09F1010940F3D382002214460FA911E0ABAAAA2A506600000000703EEB
:404880000000704100002040C3F180700BB108600124013295420DDD51F8043F002CF3D0C3F1FF13013203F57F4395420B604FF00104F1DC089B002B0DDD012B00F0B18080
:4048C000022B08D16A1E10AB53F8223010A9C3F3150341F82230B8F1020F00F08180002200233046394601F0B9F8002800F05B82099B05F1FF3B5B4510DC05F1804310AA71
:40490000013B0F9802EB8303002253F80419834242EA0102F9D1002A40F0B180099B10AA013B52F82330002B40F071820E9A012352F8041901330029FAD0E9186A1C8A421C
:404940000C914BDC0D990B985118DB0001F180410593A79B05440139E80003EB810A24ABD20003EB000B74AB13440193A2F10803069007934FF000095AF8040F00F0A0FDC9
:40498000029BEBE80201002B4FF000064FF000071BDB069B03EB0904079B09EB030824AB1C449844049BA3F10805F5E9022374E8020100F0EBFD02460B463046394600F098
:4049C00033FC444506460F46EFD1019B09F10809E3E802670193059B9945CDD10C9DCCE632463B460020B04900F01CFC06460F46002C3FF474AF089A0020AB4900F094FB46
:404A000002460B463046394600F00CFC06460F4665E710D16B1E10AA52F823304FEAE3581CE76A1E10AB53F8223010A9C3F3160341F822304FE700229C4B01F02DF858B972
:404A400080464CE700260027EAE90267DA4509F101097FF45EAE84E6002D09F10109C8BF4FF002083FF702AF32463B4600208E4900F0D8FB4FF0020806460F462FE7089A6B
:404A800010AB53F82B30183ACDF81490CDF8048008926BB90BF18043013B10A901EB830353F804190BF1FF3B183A0029F8D00892089A00207C4900F037FBBBF1000F044684
:404AC0000D46C0F2B6814FEACB030DF5E87810AA02EB8B0608EB03090493043609F1080756F8040D00F0ECFC22462B4600F04EFD002267E902016E4B2046294600F046FD7F
:404B0000B84504460D46EBD14B46CDF818B09B460DF5987ACDF808A0DDF824A04FF00009BAF1000FC0F226815DA3D3E90023DFF884815D4600260027002403E0A14510DB28
:404B4000F8E90223F5E8020100F020FD02460B463046394600F068FB0134A24506460F46ECDA029BABF1080B03EBC903C3E9006772AB5B4509F10109D2D1A69BDDF818B083
:404B8000DDF808A0032B00F28380DFE813F0D100950095000400BBF1000F40F35481049BCDF808B053449846D3E90067D34658E9029A32463B464846514600F035FB044697
:404BC0000D4602460B464846514600F02BFB32463B4600F029FBC8E9000168E90245C34526462F46E3D1DA46DDF808B0BBF1010F40F32981049B0DF59C7B53449846D3E96B
:404C00000067994659E902343046CDE902341A463946234600F008FB04460D4602460B46DDE9020100F0FEFA32463B4600F0FCFAC9E9000169E90245CB4526462F46E1D164
:404C400000231D4608F1080850AC184678E90223294600F0E9FA444503460D46F5D1019A002A00F0D880DAF80440DAF80C200A9FDAF80010DAF8080005F1004504F100449E
:404C800002F100427D613B617C60FA603960B860059B03F007000DF51D7DBDE8F08F00BF00000040FB21F93F0000F03F0000E03F0000703E6066000000242146049D083586
:404CC000554475E90223204600F0AEFA55450446F7D1019B002B50D00A9F01F100450B46DAE9000187E83000224600F09BFABBF1000F03460D460DDD01241846FAE90223BA
:404D0000294600F091FA0134A34503460D46F4DA019A0AB105F10045184629460A9BC3E90201059B03F007000DF51D7DBDE8F08F00231C46049A0832924418467AE90223DD
:404D4000214600F071FA0BF1FF3BBBF1FF3F03460C46F2D1019A0AB104F10044184621460A9BC3E90001059B03F007000DF51D7DBDE8F08F00260027F3E626460F462246A4
:404D80000A9C0B46DAE90001C4E9006700F04AFABBF1000F03460D46AEDC184629460A9BC3E90201BDE7089B30465A423946CDF81490CDF8048000F0B7F900222C4B0646DF
:404DC0000F4600F069FE002840D00022294B3046394600F0DBFB00F089FE044600F070FB0022234B00F0D2FB0B4602463946304600F018FA00F07AFE089B05F1010B18332D
:404E0000089310AB43F8250043F82B4050E6012393E500244EE51846DAE90067DAE9022329460A9DC5E90067C5E90401C5E902232EE7A69B032B3FF62BAFDFE803F015105A
:404E400010020DF5987A00231D4608E73046394600F04CFE10ABAB4643F8250028E6002421460DF5987A34E700231C4672E700BF000070410000703E2DE9F04F21F00046EC
:404E8000B6F1795F85B00C4690469946054604DA00F02CFE002800F085802A4623462846214600F073FB06460F4602460B462846214600F06BFB3EA3D3E9002382468B460D
:404EC0003046394600F062FB3BA3D3E9002300F0A9F932463B4600F059FB39A3D3E9002300F0A2F932463B4600F050FB36A3D3E9002300F097F932463B4600F047FB34A330
:404F0000D3E9002300F090F90E9BCDE900019BB30022334B4046494600F038FBDDE90023CDE902015046594600F030FB02460B46DDE9020100F076F932463B4600F026FBD6
:404F400042464B4600F06EF923A3D3E9002306460F465046594600F019FB02460B463046394600F061F902460B462846214600F059F905B0BDE8F08F02460B463046394653
:404F800000F004FB14A3D3E9002300F04BF952465B4600F0FBFA2A46234600F045F905B0BDE8F08F2846214605B0BDE8F08F00BF7CD5CF5A3AD9E53DEB9C2B8AE6E55A3E7F
:404FC0007DFEB157E31DC73ED561C119A0012A3FA6F810111111813F495555555555C53F0000E03F21F00041704700BF41F0004101F58010C00F70470020704700200149D2
:40500000704700BF0000F87FF0B5C1F30A5EAEF2FF36132E83B002460B460C464FEAD17507462EDC002E49DB3D49314103EA010010432BD049080B4053EA02070CD04FF431
:405040008023132E24EA010143FA06F444EA01040CBF4FF000470027324B214603EBC505D5E90045384622462B4600F0DDF8CDE90001DDE9000122462B4600F0D3F803B0DA
:40508000F0BD332E06DDB6F5806F45D01046194603B0F0BDAEF2134E4FF0FF3121FA0EF10842F3D049080842D6D04FF0804320EA010143FA0EFE4EEA0107CDE721F00041C6
:4050C00001431946E4D0C3F3130343EA000CCCF1000343EA0C0C134B640C4FEA1C3C0CF4002C03EBC5036404D3E900674CEA040132463B4600F098F8CDE90001DDE9000151
:4051000032463B4600F08EF8024621F0004141EAC57310461946BBE700F086F8B8E700BFFFFF0F00A0660000F8B5C1F30A5604460D460B46174606BB21F00043034325D071
:4051400000222F4B00F022FA2E4A044697420D460B462ADBC1F30A56363E40F2FE723E44964228DC002E12DD23F0FF4323F4E00343EA065520462946F8BD40F2FF729642C2
:40518000EBD102460B4600F04FF8F8BDF8BD16F1350F1DDA4CF250339F420CDC14A1D1E9000122462B4600F031F811A3D3E9002300F0ECF9F8BD22460FA1D1E900012B466A
:4051C00000F024F80CA3D3E9002300F0DFF9F8BD23F0FF4323F4E003363643EA0655204629460022084B00F0D1F9F8BDAFF3008059F3F8C21F6EA5019C7500883CE4377ED3
:4052000000005043B03CFFFF0000903C03F0004321F0004242EA0301704700BF81F0004102E000BF83F0004330B54FEA41044FEA430594EA050F08BF90EA020F1FBF54EA09
:40524000000C55EA020C7FEA645C7FEA655C00F0E2804FEA5454D4EB5555B8BF6D420CDD2C4480EA020281EA030382EA000083EA010180EA020281EA0303362D88BF30BD37
:4052800011F0004F4FEA01314FF4801C4CEA113102D0404261EB410113F0004F4FEA03334CEA133302D0524263EB430394EA050F00F0A780A4F10104D5F1200E0DDB02FAA8
:4052C0000EFC22FA05F2801841F1000103FA0EF2801843FA05F359410EE0A5F120050EF1200E012A03FA0EFC28BF4CF0020C43FA05F3C01851EBE37101F0004507D54FF03B
:40530000000EDCF1000C7EEB00006EEB0101B1F5801F1BD3B1F5001F0CD349085FEA30004FEA3C0C04F101044FEA445212F5800F80F09A80BCF1004F08BF5FEA500C50F10E
:40534000000041EB045141EA050130BD5FEA4C0C404141EB010111F4801FA4F10104E9D191F0000F04BF01460020B1FA81F308BF2033A3F10B03B3F120020CDA0C3208DDE2
:4053800002F1140CC2F10C0201FA0CF021FA02F10CE002F11402D8BFC2F1200C01FA02F120FA0CFCDCBF41EA0C019040E41AA2BF01EB0451294330BD6FEA04041F3C1CDA4B
:4053C0000C340EDC04F11404C4F1200220FA04F001FA02F340EA030021FA04F345EA030130BDC4F10C04C4F1200220FA02F001FA04F340EA0300294630BD21FA04F02946A1
:4054000030BD94F0000F83F4801306BF81F480110134013D4EE77FEA645C18BF7FEA655C29D094EA050F08BF90EA020F05D054EA000C04BF1946104630BD91EA030F1EBF7A
:405440000021002030BD5FEA545C05D14000494128BF41F0004130BD14F580043CBF01F5801130BD01F0004545F0FE4141F470014FF0000030BD7FEA645C1ABF19461046F0
:405480007FEA655C1CBF0B46024650EA013406BF52EA033591EA030F41F4002130BD00BF90F0000F04BF0021704730B54FF4806404F132044FF000054FF0000150E700BF3C
:4054C00090F0000F04BF0021704730B54FF4806404F1320410F0004548BF40424FF000013EE700BF42004FEAE2014FEA31014FEA02701FBF12F07F4393F07F4F81F06051D0
:40550000704792F0000F14BF93F07F4F704730B54FF4607401F0004521F0004120E700BF50EA010208BF704730B54FF000050AE050EA010208BF704730B511F0004502D573
:40554000404261EB41014FF4806404F132045FEA915C3FF4DCAE4FF003025FEADC0C18BF03325FEADC0C18BF033202EBDC02C2F1200300FA03FC20FA02F001FA03FE40EA4C
:405580000E0021FA02F11444C1E600BF70B54FF0FF0C4CF4E06C1CEA11541DBF1CEA135594EA0C0F95EA0C0F00F0DEF82C4481EA030621EA4C5123EA4C5350EA013518BFE9
:4055C00052EA033541F4801143F4801338D0A0FB02CE4FF00005E1FB02E506F00042E0FB03E54FF00006E1FB03569CF0000F18BF4EF0010EA4F1FF04B6F5007F64F540742A
:4056000004D25FEA4E0E6D4146EB060642EAC62141EA55514FEAC52040EA5E504FEACE2EB4F1FD0C88BFBCF5E06F1ED8BEF1004F08BF5FEA500E50F1000041EB045170BDAF
:4056400006F0004646EA010140EA020081EA0301B4EB5C04C2BFD4EB0C0541EA045170BD41F480114FF0000E013C00F3AB8014F1360FDEBF002001F0004170BDC4F1000497
:40568000203C35DA0C341BDC04F11404C4F1200500FA05F320FA04F001FA05F240EA020001F0004221F0004110EBD37021FA04F642EB06015EEA430E08BF20EAD37070BD5D
:4056C000C4F10C04C4F1200500FA04F320FA05F001FA04F240EA020001F0004110EBD37041F100015EEA430E08BF20EAD37070BDC4F1200500FA05F24EEA020E20FA04F34D
:4057000001FA05F243EA020321FA04F001F0004121FA04F220EA020000EBD3705EEA430E08BF20EAD37070BD94F0000F0FD101F00046400041EB010111F4801F08BF013C1F
:40574000F7D041EA060195F0000F18BF704703F00046520043EB030313F4801F08BF013DF7D043EA0603704794EA0C0F0CEA135518BF95EA0C0F0CD050EA410618BF52EA18
:405780004306D1D181EA030101F000414FF0000070BD50EA410606BF1046194652EA430619D094EA0C0F02D150EA013613D195EA0C0F05D152EA03361CBF104619460AD177
:4057C00081EA030101F0004141F0FE4141F470014FF0000070BD41F0FE4141F4780170BD70B54FF0FF0C4CF4E06C1CEA11541DBF1CEA135594EA0C0F95EA0C0F00F0A7F8C9
:40580000A4EB050481EA030E52EA03354FEA013100F088804FEA03334FF0805545EA131343EA12634FEA022245EA111545EA10654FEA00260EF000419D4208BF964244F15C
:40584000FD0404F5407402D25B084FEA3202B61A65EB03055B084FEA32024FF480104FF4002CB6EB020E75EB030E22BFB61A754640EA0C005B084FEA3202B6EB020E75EBF7
:40588000030E22BFB61A754640EA5C005B084FEA3202B6EB020E75EB030E22BFB61A754640EA9C005B084FEA3202B6EB020E75EB030E22BFB61A754640EADC0055EA060E0A
:4058C00018D04FEA051545EA16754FEA06164FEAC30343EA52734FEAC2025FEA1C1CC0D111F4801F0BD141EA00014FF000004FF0004CB6E711F4801F04BF01430020B4F1DB
:40590000FD0C88BFBCF5E06F3FF6AFAEB5EB030C04BFB6EB020C5FEA500C50F1000041EB045170BD0EF0004E4EEA113114EB5C04C2BFD4EB0C0541EA045170BD41F48011E7
:405940004FF0000E013C90E645EA060E8DE60CEA135594EA0C0F08BF95EA0C0F3FF43BAF94EA0C0F0AD150EA01347FF434AF95EA0C0F7FF425AF104619462CE795EA0C0F80
:4059800006D152EA03353FF4FDAE1046194622E750EA410618BF52EA43067FF4C5AE50EA41047FF40DAF52EA43057FF4EBAE12E74FF0FF3C06E000BF4FF0010C02E000BFFA
:4059C0004FF0010C4DF804CD4FEA410C7FEA6C5C4FEA430C18BF7FEA6C5C1BD001B050EA410C0CBF52EA430C91EA030F02BF90EA020F0020704710F1000F91EA030F58BF21
:405A0000994208BF90422CBFD8176FEAE37040F0010070474FEA410C7FEA6C5C02D150EA013C07D14FEA430C7FEA6C5CD6D152EA033CD3D05DF8040B704700BF8446104633
:405A400062468C461946634600E000BF01B5FFF7B7FF002848BF10F1000F01BD4DF808EDFFF7F4FF0CBF012000205DF808FB00BF4DF808EDFFF7EAFF34BF012000205DF8BE
:405A800008FB00BF4DF808EDFFF7E0FF94BF012000205DF808FB00BF4DF808EDFFF7CEFF94BF012000205DF808FB00BF4DF808EDFFF7C4FF34BF012000205DF808FB00BF84
:405AC0004FEA410C7FEA6C5C02D150EA013C0AD14FEA430C7FEA6C5C02D152EA033C02D14FF0000070474FF0010070474FEA410212F5001215D211D56FF47873B3EB625201
:405B000012D94FEAC12343F0004343EA505311F0004F23FA02F018BF404270474FF00000704750EA013005D111F0004008BF6FF0004070474FF00000704700BF014B186892
:405B4000704700BF4481FF1F0E4B70B51E460E4C0025E41AA410A54204D056F8253098470135F8E700F0C0FD084B094C1E46E41AA4100025A54204D056F825309847013564
:405B8000F8E770BDF4660000F4660000F4660000FC66000010B5431E0A44914204D011F8014B03F8014FF8E710BD03460244934202D003F8011BFAE7704700000EB400B5A6
:405BC0004FF402719CB0ADF814106FF00041049107914FF6FF711DAB02900690084853F8042BADF81610006802A9019300F00EF9029B00221A701CB05DF804EB03B0704772
:405C00004481FF1F38B50546002944D051F8043C0C1F002BB8BFE41800F0C1FB1E4A1368114613B96360146030E0A3420DD92268A018834201BF18685B681218226063607D
:405C40000C6023E0A24203D813465A68002AF9D118681918A1420BD12168014458188242196013D110685268014419605A600DE002D90C232B6009E021686018824201BF7E
:405C8000106852680918216062605C602846BDE8384000F085BB38BD9081FF1F70B5CD1C25F0030508350C2D38BF0C25002D064601DBA94202D90C23336046E000F06FFB8D
:405CC000234B1C681A462146A1B10B685B1B0ED40B2B03D90B60CC18CD501EE08C420BBF63684B681360636018BF0C4615E00C464968E9E7174C23681BB9304600F016FBDC
:405D000020602946304600F011FB431C18D0C41C24F00304A0420DD12560304600F040FB04F10B00231D20F00700C31A0ED05A42E25070BD211A304600F0F8FA0130EBD14D
:405D40000C233360304600F02BFB002070BD00BF9081FF1F8C81FF1F2DE9F0478E6882469E420C46914698463ED88A8912F4906F3AD02568096902236F1A656905EB450590
:405D800095FBF3F57B1C43449D4238BF1D4653050FD52946FFF782FF064698B13A462169FFF7F8FEA38923F4906343F08003A38113E02A4600F0F5FA064670B92169504680
:405DC000FFF720FF0C23CAF80030A3894FF0FF3043F04003A381BDE8F08726613E44266046466561ED1BA560464528BF464649463246206800F0B8FAA36800209B1BA3601C
:405E000023681E442660BDE8F08700002DE9F04F9DB003938B8980461C060D4616460DD50B695BB94021FFF739FF2860286118B90C23C8F80030CDE040236B61002309935B
:405E400020238DF82930DFF89CB130238DF82A3037463C4614F8013B1BB9B7EB060910D003E0252BF9D02746F3E74B46324629464046FFF771FF013000F0A780099B4B44DD
:405E800009933B78002B00F0A08000234FF0FF3204930793059206938DF853301A930126052221784E4800F051FA671C049B38B14B4A3C46801A06FA00F018430490EFE786
:405EC000D90644BF20228DF853201A0744BF2B228DF8532022782A2A03D0079A00210A200BE0039A111D12680391002A10DA524243F00200079204900BE027463B78013462
:405F0000303B092B03D800FB02320121F5E701B107923B782E2B1ED17B782A2B0AD1039B02371A1D1B680392002BB8BF4FF0FF33059310E0002319460593781C0A24074667
:405F40003A780130303A092A03D804FB01210123F5E703B1059103223978224800F0F6F940B14023CBEB000003FA00F0049B013718430490397806221B487E1C8DF82810EC
:405F800000F0E4F988B1194B33B9039B073323F007030833039314E003AB00932A46144B04A94046AFF3008007E003AB00932A460F4B04A9404600F093F8B0F1FF3F824625
:405FC00003D0099B5344099342E7AB895B0601D4099801E04FF0FF301DB0BDE8F08F00BFB2660000B8660000BC66000000000000595D00002DE9F04791461F460A698B68C7
:4060000006469342B8BF1346C9F8003091F843200C46DDF8208012B10133C9F800302368990642BFD9F800300233C9F80030256815F0060510D104F1190A07E00123524658
:4060400039463046C04701301AD00135E368D9F800209B1A9D42F1DB94F843302268003318BF012392060FD5E118302081F843005A1C94F845102244023382F8431003E05D
:406080004FF0FF30BDE8F08704F1430239463046C0470130F4D02268D9F80050E36802F00602042A08BF5D1B2269A3680CBF25EAE57500259342C4BF9B1AED184FF0000985
:4060C0001A344D4509D00123224639463046C0470130D5D009F10109F3E70020BDE8F0872DE9F04317460A7E85B06E2A984606460C460C9B01F1430E00F0AE8011D8632A7A
:4061000022D009D8002A00F0BB80582A40F0CA8081F84520834955E0642A1ED0692A1CD0C0E0732A00F0B08009D86F2A2ED0702A40F0B8800A6842F020020A603EE0752A9D
:4061400024D0782A3AD0ADE01A6801F14205111D1960136884F84230A8E021681A6811F0800F02D0111D196008E011F0400F02F10401196002D0B2F9003000E01368002BAF
:406180003CDA2D225B4284F8432037E021681A6811F0800F02D0111D196007E011F0400F02F10401196001D0138800E01368227E5C496F2A14BF0A2208221BE078225A4925
:4061C00084F845202268186812F0800F00F104051D6003D1550601D5038800E00368D00744BF42F0200222601BB9226822F0200222601022002084F8430001E049490A225D
:406200006568002DA56008DB206820F0040020602BB9002D7DD175460CE0002B79D07546B3FBF2F002FB1033CB5C05F8013D03460028F5D1082A0BD12368DA0708D52369DF
:4062400062689A42DEBF302305F8013C05F1FF35C5EB0E0323612EE008681A6810F0800F496903D0101D1860136808E010F0400F02F104001860136801D0198000E01960C7
:4062800000232361754616E01A68111D1960156800216268284600F059F808B1401B6060636804E004F1420584F8422001232361002384F84330CDF800803B4603AA214615
:4062C0003046FFF797FE013002D14FF0FF3026E023692A4639463046C0470130F5D023689B0710D5002504F1190907E001234A4639463046C0470130E7D00135E368039A4C
:406300009B1A9D42F2DBE068039B9842B8BF184605E00B7804F1420584F842308AE705B0BDE8F083C3660000D466000038B5064C0023054608462360FBF774F8431C02D126
:40634000236803B12B6038BD5483FF1F10B5C9B202449042034605D01C7801308C42F8D1184610BD002010BD884210B501EB020301D8421E0BE09842FBD28118D21AD3429A
:4063800004D013F8014D01F8014DF8E710BD994204D011F8014B02F8014FF8E710BD70477047F8B5074615460E4621B91146BDE8F840FFF773BC1AB9FFF724FC2846F8BD6D
:4063C00000F015F885420ED929463846FFF766FC044650B131462A46FFF7DCFB31463846FFF710FC01E03046F8BD2046F8BD51F8040C0028BEBF091851F8043CC0180438D4
:406400007047000000000000496E69742048572E2E2E000043616C6962726174696E6700446F6E2774206D6F76652E2E2E00000052656164792100005374617274696E67E9
:406440002E2E2E004C515200456E6572677900006D54686574613A0025303364000000002E0000002D000000405100402000C05100401000F05100401000000001408004AD
:4064800000050140000B00140140000800400140000A004C014000020050014020000000800401402C0C004880000000666D6F6400000000706F77000000000000000000A2
:4064C0000000000000000080FB21F93FFB2109407CD91240FB2119407A6A1F407CD92240BBFD2540FB2129403A462C407A6A2F405C4731407CD932409C6B3440BBFD3540E9
:40650000DB8F3740FB2139401BB43A403A463C405AD83D407A6A3F404C7E40405C4741406C1042407CD942408CA243409C6B4440AC344540BBFD4540CBC64640DB8F474065
:40654000EB584840FB21494083F9A200444E6E00FC291500D1572700DD34F50062DBC0003C999500419043006351FE00BBDEAB00B761C5003A6E2400D24D42004906E00054
:4065800009EA2E001C92D100EB1DFE0029B11C00E83EA700F535820044BB2E009CE98400B4267000417E5F00D6913900538339009CF439008B5F840028F9BD00F81F3B0012
:4065C000DEFF97000F980500112FEF000A5A8B006D1F6D00CF7E360009CB2700464FB7009E663F002DEA5F00BA277500E5EBC7003D7BF100F739070092528A00FB6BEA0056
:406600001FB15F00085D8D00300356007BFC4600F0AB6B0020BCCF0036F49A00E3A91D005E619100081BE60085996500A0145F008D40680080D8FF0027734D000606310036
:40664000CA561500C9A873007BE260006B8CC0000200000003000000040000000600000000000040FB21F93F000000002D44743E000000809846F83C0000006051CC783B05
:4066800000000080831BF0390000004020257A38000000802282E336000000001DF36935000000000000304300000000000030C34300232D302B2000686C4C006566674566
:4066C00046470030313233343536373839414243444546003031323334353637383961626364656600000000F8B500BFF8BC08BC9E4670474D00000011150000F8B500BFAB
:40670000F8BC08BC9E4670472900000020670000C880FF1F800000001002000000000000000000005883FF1F00366E01C05D0000180000000000E02E0100000000000000BC
:4067400000000000000000000000000000000000000000000000000000000000B0660000000000000000000000000000000000000000000000000000000000000000000003
:4067800000000000000000000000000000000000000000000000000000000000E480FF1F000000000000000000000000000000000000000000000000000000000000000057
:4067C0000000000000000000000000000000000000000000000000000000000000000000000000000000000000000000000000000000000000000000000000000000000099
:406800000000000000000000000000000000000000000000000000000000000000000000000000000000000000000000000000000000000000000000000000000000000058
:406840000000000000000000000000000000000000000000000000000000000000000000000000000000000000000000000000000000000000000000000000000000000018
:4068800000000000000000000000000000000000000000000000000000000000000000000000000000000000000000000000000000000000000000000000000000000000D8
:020000040003F7
:0200000480007A
:4000000001520040015B00400564004004650040480001402F0101405D02014042030140160401404B05014062060140450701405A08014035090140010F014067140140CE
:400040005A150140701601404E1701405718014052190140461A0140591B0140074001400B4101400742014009430140044401400848014016490140074C0140075001409F
:400080000251014004012F84200981728238836F870F846F8767880F8A0F0104030207040E020F011408170119011F082108220426092F02300432013308340235063608DB
:4000C00037013E403F4440464720482049FF4AFF4BFF580459045A045C715D075F0160806240634064406540668068806A806C806E808110851F89078B188F04911C9302B2
:400100009508A104A401A518A801A91CAB01AC01AF03B001B71FBA08BB80D602D712D804D904DB04DC66DD60DF01008009010A6010A01540171419111A251E6020082244CD
:400140002304270129012A802C402D182E40308031103208370938023A403B043C603D043E024280480450015E086D686F147508762A77088A80C001C204C4ECCAF9CCCE6B
:40018000CEFBD001D204D6400318056709670A0112011318151819541B21212A23C125182B182D192F06318032013360350737183E044056410449FF4AFF4BFF4DA04F0142
:4001C000501854185604580459045A045B045C605D615F016040628064406540668068406A806C406D206E80800199019D01A001A302A401A902B102B301B401B828B9080B
:40020000BE14BF01C056C104C542C6C3C70EC81FC9FFCAFFCBFFCDAFCE07CF01D018D40FD804D904DA04DB04DC10DD11DF05E040E280E440E540E680E840EA80EC40ED208E
:40024000EE800002010104200F8010A019201A101F04220823802445272029112C402D142F0230B037253D2A408044804640486049614D204E0150805108521058105A097D
:400280005B805C016108621064026601670879057A108201928D9440951499109A2A9B099C409E40A115A210A4F0A60CB304C048C210C40CCAF5CCECCEE0D081D23CD68F05
:4002C000D8B6DE01EE2006020701100214011801220423022A012E02300431013401360237023E505280580459045B045C125D105F010024030C04410622070809020A0406
:400300000B200E220F141248134014401510171519501A421D041E0A21022301242027442B802C402D142F023680372438043C403E283F02450147444A034E024F14574088
:4003400073407C017D027E80800281048F80910492949420951096029A2A9B299C829D409F04A101A218A303A411A604A740A804AB02AC40AF01C0F4C2EEC47BCAF1CC7011
:40038000CEF2D0D0D230E0400104050209060E0319061B011C011F0121062301250729012B062E013307340136023B083E104035410449FF4AFF4BFF4DA04F0150185280D2
:4003C000580459045A045B045C625D205F016040628064406540668068406A806C406D206E8082048506860289068C018D039004940895059C019F08A001A208B002B1077A
:40040000B208B308B404B601B880B902BE54C035C104C530C6C4C72EC83EC9FFCAFFCBFFCDAFCE07CF01D018D40FD604D804D904DA04DB04DD10DF01E040E280E440E54070
:40044000E680E840EA80EC40ED20EE800088024005400A400B120E02108017401880198A1A041D201E0A2080235027102C402D042F0830843680371038203B443E2A41085B
:40048000430145094701488049804A404D80521853C1580959105A80638077408340840487408F01910492D0930194049720984099109A2A9C809E409F10A280A308A401E2
:4004C000C08DC28DC488CAE0CC3ACEEED0C3D218D60FD801E00800020601082009940A040B600C010DCF0F30103011FD120813021530164017C9181C199E1B601C2C1E1042
:400500001F0F20012573263C28302A042C02303C31FF32013402364038203E043F01580459045F0185138603870C89038B048C0C8D138E718F0490DC9222941096AC9C090C
:400540009ED09F08A014A410A520A640A705AA20AD0AAF14B0E0B30FB41FB730B980BA02BB08C032C104C50EC6CBC80DC9FFCAFFCBFFCEF0CF44D00CD804D904DA04DC66CE
:40058000DD06DF01E6C0EA40EB0200400320040605400704080109880B400C200E420F101080122414821620172018C01B201C041D401E611F02218C2204260228012A082F
:4005C0002C203180348036013764384039083B203EE03F2040404104420849085080531087108C01C0F5C2FDC4FECA4ACCF8CE3ED007E040E620020205C5073A09A30B5CF7
:400600000C080D7F110E120413F0140215FE170118021E092196236828022B012C02300831FF340636013E013F014061410349FF4AFF4BFF4DA04F0150185280540F58044C
:4006400059045A045B045D025F056040628064406540668068406A506BA86C406D206E506FA884018A018E1E90109202940E98189A029B02A201A416A608A701A818AA04CD
:40068000B101B201B302B41EBE04C024C103C9FFCAFFCBFFCDAFCE07CF01D018D608D804D904DA04DB04DC01DD22DF01E040E280E440E540E680E840EA50EBA8EC40ED2011
:4006C000EE50EFA80182048005200710080409020B060E600F08111012021420168819A11C081D0821022603271029222C20300432023520382039503B443C083E084140E9
:400700004230452046604A0459195A805C80621865407280794080C0811083048401861088248D108F019020918092D0934694809820990A9A509C049D409E20A120A20CB1
:40074000A405A518A611A704A820A941ACC0AF30B402B641B710C0E9C27FC473CA45CC23CE0ED0EAD204D61FD816DE08E010E201E420E60CEA80EE270110032104960504CC
:40078000066809040A010C0E0D100EF00F2210A31104125C147F18C519201A3A1B141D101F2024FE260127082D043102333034FF350C37013B083E104024410349FF4AFFCA
:4007C0004BFF4DAF4E074F015018580459045A045C105D025F016040628064406540668068406A506BA86C406D206E506FA88518870489188B028D0E9101951697089802C9
:400800009F01A31EA603AD10AF02B401B51EB602B701BE40BF40C061C103C525C6C0C70EC81FC9FFCAFFCBFFCDAFCE07CF01D018D407D804D904DA04DB04DC02DD22DF01C8
:40084000E040E280E440E540E680E840EA50EBA8EC40ED20EE50EFA8048007180A080EA00F081020142019801A081F2022402304240425402758280229022C012D402F2099
:4008800030043382375238203B443DA03F09414042104520466048604A045140526459805A045B20622478087A10870488048A408B0290209214934394049724990A9A1033
:4008C0009C8D9D409E40A120A20CA382A401A509AF02B040B240B450C0E0C272C424CA59CCBBCEFED0EAD204D60ED806E082E208E608EA080173022005CF06200730080710
:4009000009940B600C200DFD0F0210071530160717C91A041C101D9E1F6020012202240126022A082B0F2C043020320F33FF36103E413F04540F5604580459045B045C0160
