:03000000020100FA
:1001000012011E120149AA70120155EA5401B401EC
:1001100004D2B28002C2B28B9012013880E5758998
:1001200020758840758DFD75985090FE037424F0FD
:1001300090FE007401F07B00C374009BFB90FE03F3
:100140007452F090FE01EBF0223098FD85997053C7
:10015000707FC29822120149C07085707112019A95
:10016000120149C07085707112019A120149C07064
:1001700085707112019AD050D051D052E55224D0DE
:1001800075F064A4F552E55124D075F00AA4F55138
:10019000E55024D025512552FB22C2998571993012
:0301A00099FD22A4
:00000001FF
