:400000000080002011000000110200001102000080B500AF024A034B1B68136000F0FCF8BC760040FA46004010B5054C237833B9044B13B10448AFF300800123237010BDFD
:400040002081FF1F0000000010190000084B10B51BB108480849AFF300800848036803B910BD074B002BFBD0BDE81040184700BF00000000101900002481FF1F0881FF1FBF
:400080000000000080B582B000AF00F04DFC012000F0C6FC00F020F800F048F84FF4FA637B6000F063F87B68184600F07DFB00F073F87B68184600F077FB012000F082F8EE
:4000C0007B68184600F070FB022000F07BF87B68184600F069FBE4E780B500AF01F0E6F801F046FA80BD00BF80B582B000AF78607B68012B02D0022B09D011E001F0AAF945
:40010000002001F0B7F901F0D5F9034609E001F003FB002001F010FB01F02EFB034600E000231BB218460837BD4680BD80B500AF00F02EFE00F0B0FE002000F051FE0020D5
:4001400000F0D2FE80BD00BF80B500AF00F036FE03469BB21BB2184680BD00BF80B500AF00F0B0FE0346184680BD00BF80B500AF012000F055FC074800F01CFC01200021FA
:4001800000F0E2FBFFF7E0FF03469BB2184600F089FD80BD1419000080B500AF012000F03FFC074800F006FC0120002100F0CCFBFFF7D4FF03469BB2184600F073FD80BD05
:4001C0002019000080B582B000AF7860012000F027FC0D4800F0EEFB7B689BB2184600F061FD0A4800F0E6FB0120002100F0ACFB7868FFF779FF03469BB2184600F052FD1D
:400200000837BD4680BD00BF2C1900003419000080B400AFFEE700BF80B586B000AF224B7B61224B3B61204B7B6135E03B691B68FB603B695B68BB603B699B683B60002336
:400240007B600CE0FB681A68BB681A60BB680433BB60FB680433FB607B6804337B607A683B689A42EED13B69DB683B6000237B6008E0BB6800221A60BB680433BB607B6837
:4002800004337B607A683B689A42F2D13B6910333B617B69013B7B617B69002BC6D101F0FDFAFFF7EFFEFEE7010000008C19000080B582B000AF174B174A1A60174A174B77
:4002C0001B6843F40073136000237B600FE07B68032B04D8124A7B6852F8233000E0114B11497A6841F822307B6801337B607B682F2BECD90D4B1B78DAB20D4B1A700D4B00
:40030000094A1A6000F084F90B4B00221A600837BD4680BD0CED00E00004FA0514ED00E000000000110200000080FF1FBC7600400481FF1F08ED00E00081FF1F80B582B0B4
:4003400000AF78603960786800213A6801F0D7FA0837BD4680BD00BF80B584B000AFF860B9607A60F868B9687A6801F0BDFA1037BD4680BD80B483B000AF0346FB71FEE715
:4003800080B487B000AF7860396000233B6100237B6127E07B699B007A6813441B68BB60BB68FB73BB6823F0FF03BB6014E03B695B003A6813441B781A46BB6813441946FB
:4003C0003B695B003A6813445B780B703B6901333B61FB7B013BFB73FB7B002BE7D17B6901337B617B69252BD4D91C37BD465DF8047B704780B582B000AF3C4B01221A80BA
:400400003B4B18221A703B4B01221A803A4B18221A703A4B01221A80394B18221A70394B01221A80384B18221A70384B4FF49C721A80374B18221A70364B02221A704FF0B2
:40044000402308221A70344B03221A70334B344A1278D2B21A70334B08221A80324B41F251221A800023FB7019237B6014E0FB785B00DAB22D4B1B78DBB203F00103DBB295
:400480001343DBB203F00303FB704FF4F07000F06FF97B68013B7B607B68002B02D0FB78032BE4D17B68002B02D10320FFF762FF1F4B4FF480721A801D4B07221A701D4BB3
:4004C00000221A701C4B48221A70194B00221A701A4B02221A701A4A194B1B78DBB243F01F03DBB213700837BD4680BD8040004082400040844000408640004088400040F2
:400500008A4000408C4000408E40004090400040924000400043004000420040A14600400801004922420040204200402542004004400040064000400840004001400040F7
:40054000A243004080B582B000AF234B1B78FB71224B1B78BB71224B1B787B71214AFB7903F00703DBB213701F4AFB791B09DBB213701A4ABB7943F00303DBB21370184A7B
:400580007B7943F00303DBB21370184B60221A70174B80221A70174B80221A70164B40221A70164B20221A70154B20221A70154B20221A70144B40221A700A2000F016F92D
:4005C000074A7B791370054ABB7913700F4B44221A700837BD4680BDCF010049F8460040F94600406E5800406F5800403D5100400159004009590040205B0040235B0040BE
:40060000285B00402B5B0040585B00407658004080B582B000AF72B63F4A3F4B1B78DBB243F00403DBB213700023FB7113E0FA7913465B0013445B00384A13443B603B6803
:400640001A683B689B889BB210461946FFF776FEFB790133FB71FB79072BE8D94FF090402F49FFF78DFE2F4A2E4B1B78DBB243F00203DBB213702C4A2B4B1B78DBB243F0AA
:400680000203DBB21370294A284B1B78DBB243F04003DBB21370264A254B1B78DBB243F01003DBB21370234823490822FFF754FE224823490822FFF74FFE224822490822B8
:4006C000FFF74AFE214822490822FFF745FE214821490A22FFF740FE204B84221A70204A1F4B1B78DBB243F00803DBB213701D4B01221A70FFF77EFE1A4B81221A701A4BF7
:4007000001221A70FFF71EFF184808490E22FFF723FE0837BD4680BDE846004038190000980000480350014013500140A0430040C243004002510040D80B0048C251004032
:40074000E00B004822510040E80B004832510040F00B004860510040F80B0048DB140140224300400048004004000840B04300400230800803D000BF01380046FCD17047EB
:40078000EFF3108072B6704780F31088704700BF80B483B000AF0346FB7101BE0C37BD465DF8047B704700BF80B582B000AF786008E00C4B1B681846FFF7DAFF7B68A3F5F5
:4007C00000437B607B68B3F5004FF2D8064B1B687A6802FB03F31846FFF7CAFF0837BD4680BD00BF1881FF1F1081FF1F80B582B000AF0346FB80FB88044A127802FB03F3A5
:400800001846FFF7B5FF0837BD4680BD1481FF1F80B584B000AF03463960FB710F4B1B68FB60FB791F2B02D90020FFF7B1FFFB7903F01F0310339B00FA6813441B68BB60C3
:40084000FB7903F01F0310339B00FA6813443A681A60BB6818461037BD4680BD08ED00E080B582B000AF03460A46FB711346BB71BB79072B02D90020FFF78AFFFB791F2B21
:4008800002D90020FFF784FFFB7903F01F0303F1604303F56443BA795201D2B21A700837BD4680BD80B500AF2820FFF77DFF032000F0C8F90520FFF777FF032000F0C2F921
:4008C0000F20FFF771FF032000F0BCF90120FFF76BFF022000F0B6F90520FFF765FF062000F09EF80E2000F09BF82C2000F098F8082000F095F8012000F092F80C2000F055
:400900008FF8032000F08CF80520FFF74DFF80BD80B500AF0C2000F083F8024B01221A7080BD00BF3C81FF1F80B500AF054B1B78002B04D1FFF7B6FF024B01221A70FFF747
:40094000E7FF80BD3D81FF1F80B582B000AF03460A46FB711346BB71FB79032B26D801A252F823F07509000083090000910900009F090000BB79803BDBB2184600F050F8DA
:4009800015E0BB79403BDBB2184600F049F80EE0BB796C3BDBB2184600F042F807E0BB792C3BDBB2184600F03BF800E000BF0837BD4680BD80B584B000AF78600123FB7369
:4009C0007B681B78BB730BE0BB7B184600F00EF8FB7B7A6813441B78BB73FB7B0133FB73BB7B002BF0D11037BD4680BD80B584B000AF0346FB7100F02DF8FB791B09FB73C5
:400A0000FB7B184600F0E2F8FB7903F00F03FB73FB7B184600F0DAF81037BD4680BD00BF80B584B000AF0346FB7100F013F8FB791B09FB73FB7B184600F004F9FB7903F05F
:400A40000F03FB73FB7B184600F0FCF81037BD4680BD00BF80B582B000AF4FF4CA737B60554A554B1B78DBB223F07F03DBB21370524B1B78DBB223F00F03FB704F4AFB782A
:400A800043F00F03DBB213704D4B1B78DBB223F00F03FB704A4AFB7813704A4B1B78DBB223F00F03FB70474AFB781370424A424B1B78DBB223F02003DBB213703E4A3E4BB3
:400AC0001B78DBB243F04003DBB213700020FFF78DFE394A384B1B78DBB243F01003DBB213700120FFF782FE374B1B78FB70324A314B1B78DBB223F01003DBB213700020AE
:400B0000FFF774FEFB7803F00803FB702A4A2A4B1B78DBB243F01003DBB213700120FFF765FE254A244B1B78DBB223F01003DBB21370FB78002B02D10A20FFF757FE7B689B
:400B4000013B7B60FB78002B02D07B68002BBDD1194A194B1B78DBB223F04003DBB21370154A154B1B78DBB223F07F03DBB21370124A124B1B78DBB223F00F03DBB2137073
:400B80000F4B1B78DBB223F00F03FB700C4AFB7843F00F03DBB213700A4B1B78DBB223F00F03FB70074AFB7843F00F03DBB213700837BD4680BD00BF20510040225100404D
:400BC00023510040245100402151004080B582B000AF0346FB711A4A194B1B78DBB243F02003DBB21370164A154B1B78DBB223F04003DBB213700020FFF7F8FD104A104BBB
:400C00001B78DBB223F00F03DBB213700C490C4B1B78DAB2FB791343DBB243F01003DBB20B700120FFF7E2FD054A054B1B78DBB223F01003DBB213700837BD4680BD00BFC6
:400C40002051004080B582B000AF0346FB71144A134B1B78DBB223F06003DBB21370104A0F4B1B78DBB223F00F03DBB213700C490B4B1B78DAB2FB791343DBB243F0100326
:400C8000DBB20B700120FFF7B1FD054A044B1B78DBB223F01003DBB213700837BD4680BD2051004080B586B000AF78600A23FB75FB7D07F118021344002203F8102CFB7D02
:400CC000013BFB751CE079681E4BA3FB0123DA0813469B0013445B00CA1AD3B23033BB75FB7D07F118021344BA7D03F8102C7B68144AA2FB0323DB087B60FB7D013BFB7587
:400D00007B68092BDFD879680E4BA3FB0123DA0813469B0013445B00CA1AD3B23033BB75FB7D07F118021344BA7D03F8102CFB7D07F1080213441846FFF73CFE1837BD4665
:400D400080BD00BFCDCCCCCC80B400AFBD465DF8047B704780B582B000AF0F2000F068F800F056F8FFF70CFD0346FB71074A074B1B78DBB243F01003DBB21370FB79184663
:400D8000FFF702FD0837BD4680BD00BF9264004080B500AF00F02EF9802000F057F9064B1B78002B04D1FFF7CFFF034B01221A70FFF7D0FF80BD00BF3E81FF1F80B582B047
:400DC00000AF00F053F90346FB71FB79803BDBB2BB71BB795BB218460837BD4680BD00BF80B584B000AF0346FB7197F90730002B03DBFB79803BFB7302E0FB79803BFB73D5
:400E0000FB7B184600F022F91037BD4680BD00BF80B400AF054B1B78DBB203F00F03DBB21846BD465DF8047B704700BF6264004080B483B000AF0346FB71044AFB791370E7
:400E40000C37BD465DF8047B704700BF8264004080B400AFBD465DF8047B704780B582B000AF0F2000F06AF800F058F8FFF788FC0346FB71074A074B1B78DBB243F010033C
:400E8000DBB21370FB791846FFF77EFC0837BD4680BD00BF9764004080B500AF00F080F94FF4004000F0A8F9054B1B78002B04D1FFF7CEFF024B01221A70FFF7CFFF80BD65
:400EC0003F81FF1F80B582B000AF00F0A5F90346FB80FB88A3F500439BB2BB80BB881BB218460837BD4680BD80B584B000AF0346FB80B7F90630002B04DBFB88A3F50043AF
:400F0000FB8103E0FB88A3F50043FB81FB89184600F072F91037BD4680BD00BF80B400AF054B1B78DBB203F00F03DBB21846BD465DF8047B704700BF6764004080B483B0F3
:400F400000AF0346FB71044AFB7913700C37BD465DF8047B704700BF8764004080B582B000AF1A4B1B78DBB223F00703FB71174AFB791370154B1B78DBB223F00303FB718C
:400F8000124AFB79137000F0ADF8802000F08AF8802000F05BF8002000F03CF800F04AF8802000F08FF8FFF7EBFB0346BB71084A074B1B78DBB243F01003DBB21370BB7928
:400FC0001846FFF7E1FB0837BD4680BD766400409565004080B400AF054A054B1B78DBB263F07F03DBB21370BD465DF8047B70477664004080B500AF054B1B78002B04D1F8
:40100000FFF7ACFF024B01221A70FFF7E3FF80BD4081FF1F80B483B000AF0346FB71044AFB7913700C37BD465DF8047B704700BF8565004080B400AF034B1B78DBB21846A8
:40104000BD465DF8047B70476565004080B483B000AF0346FB71044AFB7913700C37BD465DF8047B704700BF0664004080B400AF044B1B78044B1B78DBB21846BD465DF8A4
:40108000047B7047066400404664004080B400AF034B1B78DBB21846BD465DF8047B70474664004080B483B000AF0346FB71044AFB7913700C37BD465DF8047B704700BF9F
:4010C0002664004080B483B000AF0346FB71044AFB7913700C37BD465DF8047B704700BF3664004080B500AF01E0FFF7CFFFFFF7A1FF034603F04003002BF6D180BD00BF20
:4011000080B582B000AF1C4B1B78DBB223F00703FB71194AFB791370174B1B78DBB223F00303FB71144AFB79137000F0B1F84FF4004000F08DF84FF4004000F05DF800205A
:4011400000F03EF800F04CF84FF4004000F090F8FFF716FB0346BB71084A084B1B78DBB243F01003DBB21370BB791846FFF70CFB0837BD4680BD00BF71640040936400406A
:4011800080B400AF054A054B1B78DBB263F07F03DBB21370BD465DF8047B70477164004080B500AF054B1B78002B04D1FFF7A8FF024B01221A70FFF7E3FF80BD4181FF1FB2
:4011C00080B483B000AF0346FB71044AFB7913700C37BD465DF8047B704700BF8364004080B400AF034B1B78DBB21846BD465DF8047B70476364004080B483B000AF034685
:40120000FB80044AFB8813800C37BD465DF8047B704700BF0068004080B400AF044B1B78044B1B889BB21846BD465DF8047B7047006400408068004080B400AF034B1B8807
:401240009BB21846BD465DF8047B70478068004080B483B000AF0346FB80044AFB8813800C37BD465DF8047B704700BF4068004080B483B000AF0346FB80044AFB88138019
:401280000C37BD465DF8047B704700BF6068004080B500AF01E0FFF7CFFFFFF7A1FF034603F04003002BF6D180BD00BF80B500AF054B1B78002B04D100F008F8024B0122E3
:4012C0001A7000F025F880BD4281FF1F80B500AF102000F0AFFA00200721FFF7C1FA00200849FFF795FA084A074B1B78DBB243F00603DBB213700C2000F084F8034B002285
:401300001A8080BD65150000095900404481FF1F80B582B000AFFFF733FA0346FB712E4A2D4B1B78DBB243F00203DBB213702B4A2A4B1B78DBB243F00203DBB21370284ACD
:40134000274B1B78DBB243F00403DBB21370254A244B1B78DBB243F00403DBB21370224B1B78BB71BB7943F00203BB71BB7943F00103BB711C4ABB7913701C4B04221A70BA
:401380001B4A1B4B1B78DBB223F04003DBB21370174A174B1B78DBB243F00303DBB21370144B08221A70144B02221A70134A134B1B78DBB243F00803DBB213700A20FFF747
:4013C00015FA0F4B01221A60FB791846FFF7DCF90837BD4680BD00BFAB430040BB430040A2430040B24300400B5900400E5900400D59004008590040164600402F5B00404E
:4014000080E200E080B584B000AF0346FB71FB790A2B07D00C2B02D0082B06D008E0C423FB730BE08423FB7308E04423FB7305E0C423FB730020FFF7ABF900BF044AFB7B9A
:401440001370FB79184600F04FF81037BD4680BD0A59004080B400AF054A054B1B78DBB243F00103DBB21370BD465DF8047B70470859004080B584B000AF0346FB710C4B7A
:401480001B78DBB203F00103FB73FB7B012B02D0FB79002BF3D0FB7B012B04D10120FFF7A5F9034B1B78FB7B18461037BD4680BD0959004080B483B000AF094B1B88FB803F
:4014C000084B1B889BB29BB2FA88D31A9BB29BB21BB218460C37BD465DF8047B704700BFA25B00404C81FF1F80B584B000AF0346FB71FB790A2B08D00C2B02D0082B08D00E
:401500000BE04FF48053FB600DE04FF48063FB6009E04FF48073FB6005E00023FB600020FFF736F900BF0C4B00221A80FB6842F2107202FB03F303F58063002B01DA03F20B
:40154000FF73DB121A46054B1A60054B00221A801037BD4680BD00BF4681FF1F4881FF1F4C81FF1F80B400AFBD465DF8047B704780B500AF054B1B78002B04D100F008F8B1
:40158000024B01221A7000F025F880BD4381FF1F80B500AF102000F067F901200721FFF75FF901200849FFF733F9084A074B1B78DBB243F00603DBB213700C2000F084F8CE
:4015C000034B00221A8080BD29180000015900405681FF1F80B582B000AFFFF7D1F80346FB712E4A2D4B1B78DBB243F00103DBB213702B4A2A4B1B78DBB243F00103DBB225
:401600001370284A274B1B78DBB243F00803DBB21370254A244B1B78DBB243F00803DBB21370224B1B78BB71BB7943F00203BB71BB7943F00103BB711C4ABB7913701C4BAA
:4016400004221A701B4A1B4B1B78DBB223F04003DBB21370174A174B1B78DBB243F00303DBB21370144B08221A70144B02221A70134A134B1B78DBB243F00803DBB21370F4
:401680000A20FFF7B3F80F4B02221A60FB791846FFF77AF80837BD4680BD00BFAB430040BB430040A2430040B243004003590040065900400559004000590040144600401D
:4016C000275B004080E200E080B584B000AF0346FB71FB790A2B07D00C2B02D0082B06D008E0C423FB730BE08423FB7308E04423FB7305E0C423FB730020FFF749F800BF3D
:40170000044AFB7B1370FB79184600F04FF81037BD4680BD0259004080B400AF054A054B1B78DBB243F00103DBB21370BD465DF8047B70470059004080B584B000AF0346C6
:40174000FB710C4B1B78DBB203F00103FB73FB7B012B02D0FB79002BF3D0FB7B012B04D10120FFF743F8034B1B78FB7B18461037BD4680BD0159004080B483B000AF094B42
:401780001B88FB80084B1B889BB29BB2FA88D31A9BB29BB21BB218460C37BD465DF8047B704700BFA05B00405881FF1F80B584B000AF0346FB71FB790A2B08D00C2B02D02E
:4017C000082B08D00BE04FF48053FB600DE04FF48063FB6009E04FF48073FB6005E00023FB600020FEF7D4FF00BF0C4B00221A80FB6842F2107202FB03F303F58063002B6B
:4018000001DA03F2FF73DB121A46054B1A60054B00221A801037BD4680BD00BF5481FF1F5081FF1F5881FF1F80B400AFBD465DF8047B704780B483B000AF0346FB71094B94
:40184000084A1278D2B2D1B2FA7922F00702D2B20A43D2B2D2B21A700C37BD465DF8047B704700BF8A40004080B483B000AF0346FB71094B084A1278D2B2D1B2FA7922F073
:401880000702D2B20A43D2B2D2B21A700C37BD465DF8047B704700BF8E4000400E4B70B51E460E4C0025E41AA410A54204D056F8253098470135F8E700F056F8084B094CD3
:4018C0001E46E41AA4100025A54204D056F8253098470135F8E770BD7419000074190000741900007C19000010B5431E0A44914204D011F8014B03F8014FF8E710BD034642
:401900000244934202D003F8011BFAE770470000000000004D7472204465633A2000000053686472204465633A20000041444320000000003A2000001051004010004051B7
:4019400000402000F0510040100000000140001000140140000800400140000A004C01400002005001402000F8B500BFF8BC08BC9E4670474D000000B1020000F8B500BF12
:40198000F8BC08BC9E46704729000000A01900000881FF1F1800000040000000000000000000000000366E01C05D0000180000000000E02E0000000000000000000000004B
:4019C00000000000000000000000000000000000000000000000000000000000000000000000000000000000000000000000000000000000000000000000000000000000E7
:401A000000000000000000000000000000000000000000000000000000000000000000000000000000000000000000000000000000000000000000000000000000000000A6
:401A40000000000000000000000000000000000000000000000000000000000000000000000000000000000000000000000000000000000000000000000000000000000066
:401A80000000000000000000000000000000000000000000000000000000000000000000000000000000000000000000000000000000000000000000000000000000000026
:020000040003F7
:0200000480007A
:4000000001520040025B004005640040026500406400014037010140510201405003014053040140460501405706014043070140020901404A0A0140530B0140490C014097
:40004000510D0140520E0140360F014041140140481501404016014048170140031B01400740014003410140074201400343014005440140044501400546014002470140A8
:400080000848014014490140054C0140054D01400750014001510140340127842F84820F836F870F8B388D72856F870F010C020103020740090B0B040F10110715201B0FB4
:4000C000210C23012508270129102F20310F33103401354037203F444061410449FF4AFF4BFF4DA04F015018580459045A045C115D015F01604062806440654066806840CA
:400100006A806C406D206E808301850288078E079007910298019A029B019C019E029F04A208A501A804AD02AE04B00FB301B504B702B980BF44C021C104C532C6E4C70C0C
:40014000C81FC9FFCAFFCBFFCDAFCE07CF01D018D280D804D904DA04DB04DC01DD11DF01E040E280E440E540E680E840EA80EC40ED20EE800102041007020C600E40160A5D
:40018000170119201C801D0321212246259026042720284029202A482E402F2230203108330235023750389039023A023B043C023F044182458247224A044C404D024F0496
:4001C000564057147401810185088C40C0C8C2D0C4D0CA5FCCB7CECFD0B9D204E004E202E60104020530060407C908020A050F0F11CF1330140215FD1604170218041A02A7
:400200001D9E1F60259427602D733201340637FF3A203F40540F580459045B045C015F018301840C85148728890C8B308D03900A911C9406953C980199039D289F14A00CA9
:40024000A130A30CA502A601B001B103B20EB33CB808B902BE01BF01C004C504C9FFCA07CBFFCC40CD20CEF0CF05D008D40FD804D904DA04DB04DC10DD14DF05E040E1A88C
:40028000E240E32000080504070809200A200B800C200E1010101102130414011580182019091A201E101F102010210522082701282029022C202F12311032A83302344080
:4002C0003502368A380439803A013B203C843E0841014B0852015301581059015A885D085E225F4063287B02850486018A4092889304941098809C409E089F51A040A130A0
:40030000A202A314A420A722AC80B240B304C064C26EC40CCA53CCDFCE5FD001D6FFD806DE08EE0202400408071E080809100B020E071040111813021408151617081901C1
:400340001A401D181E401F042008222424402A312C082D0E2E12303F33013640371E3E403F044014410245BE460C480749FF4AFF4BFF4EF04F44500C580459045A045C119B
:400380005D045F0166C06A406B02811C83028504871088078C0C8E03911E92109701980A9A059B0A9C0F9D1A9F04A003A20CA405A51CA60AA908AD06AF08B31EB410B501A0
:4003C000B60FD804D904DC10DF0100240240030A0420070208230B220E4A12AA150A19801B021E061F40228427182B022F1A3030328A35043682371038043B203C043E018A
:40040000400A42804501470248244A445140524066806702834088208A40902092219322940497C098899C209D049E409F58A110A22AA404A501A691A722A808A950B304FB
:40044000B601C0CFC2DFC43FCA78CCFFCEC6D00DE208EA01EE040002020C0304050408100C020E040F041308140416021B011C10241027022C022E053008310232063308B3
:40048000341035043601370138203A083E103F1040324104452C4630474E483B49FF4AFF4BFF4DA04F0150185280580459045A045B045C115F01604062806440654066801D
:4004C00068406A806C406D206E8080018106820284028502860187048903930199059B02A001A106A206A301A401A602AD07B004B107B403BA20D40FD804D904DB04DC0153
:40050000DD10DF01000401020461080209010D080F021108130216201740180419021C611D28208022012504276A28022A012F1031103201340137203820390A3C823E44A8
:400540004520468047084F06562A58A45A017401802090209180922D93809404950A96409740989499809B109D04A110A414A501A610A720B004B302C0DCC2A0C4ACCA4942
:40058000CCA5CED7D0E0D60FE6048204A20400020120031004020530093013031402150C1703180119011B061C021F0C25102720280129012B0E2C012F08330F34023601B1
:4005C00037303B083E10580459045C445F018030824483028602870888248A408B068E028F0190509402980199069A0C9B019C40A002A308A440A630A870AA08AB05AF0312
:40060000B201B47CB508B602B707B880BB80BE04BF10D418D604D804D904DB04DC44DD40DF01000604160580068008400A260B040D200E100F4210021110145016201724CF
:4006400019601D201F84228423212402270828202B052EA02F80301032043342372039103B053C183E403F024801498058085B085D02614062406408678287448A048B401F
:400680008C108F4090149110927693029402982099029B049D209E409F20A007A204A307A680A841A910AB04B301B640B702C0FCC2F7C473CABECC2FCEF7D680D8B0E02068
:4006C000E280E408E880EC400201050306080704080609030A010B040C0810101407150A1704180819031B0C1C0420012206240228062B082C062E012F0532183407350F86
:4007000038083A203B20580459045C445F0181048203840F851C87018B048C038F03900C910792039318940F9801991F9C089D1C9F02A002A404A508A80CA918AC03AD1057
:40074000AE0CB60FB71FBA80BB80D602D711D804D904DB04DC44DD40DF01000402420480051406400720082009800AA00D800E500F081005128013181404158017091A02D0
:400780001C141D101F082002214022402301251026102704280429402A082F0A30013251330135043610380439203A423E203F08400C5920682269106A0471C0720873188D
:4007C0008A20912092309302951096029711982099029A029C089D409E48A004A206A420A680AF08B309B420B602C0FDC2FFC4FFCA3ECC6DCE6FD604E480ECA003C009077B
:400800000DC011C1130E15C019071D841F11254227312BC02FC0310733C0352037183A083F40580459045C445F01810782018401850889068A018C048D018F069308950630
:400840009602970199079A029D04A301A502A608A908AC04B002B201B308B408B507B604B880BE05BF04C054C102C203C401C50CC70EC811C9FFCAFFCBFFCC62CDA0CEF06D
:40088000CF41D00CD804D904DA04DC41DD04DF01E640E702E910EA30EB10ED10EE10EF12042507010E200F08178819041A301C051E061F09219022062614270428282A40DD
:4008C0002C402E28302031043282340835403601372039103B413C043F5144404580464047244E014F4854045E105F2080108220860489028A048F80C0F0C260C4A0CAEEF2
:40090000CCFFCEFDD0F0D210E410E601020F0310049E06600C940D010E600F0210FD120214731502170119011B061D011F0A20CF223028302AC93108330334FF3510370444
:400940003B083E10580459045F018310850C8601870189088A028B018F0F91409507980499109D0C9E049F02A10BA304AB40AF20B004B10FB202B320B401B540B710BE017D
:40098000BF50D40FD804D904DB04DC01DF05008801020510071008080A200B800E080F02110212081A041D041F2120602104226824802501264427482B032E202F42326844
:4009C0003428374138403A013CA83E025D105E805F09660867077E10820189108B018D1092209384948095189604982099029A2A9B119D04A044A301A501A720AF10B012EC
:400A0000B540B610C06DC2CCC40ACAB0CCFECEF9D6F0D860DE40E040E404EC20EE08000103020401080E0B010C180E021304161E181819041A041E0120102202242028202B
:400A40002C162E082F0432013302341E35043620370138803E043F10580459045F018102820E830184028604900E91019302940E950197029A109E20A208A408A501A7029E
:400A8000AA01AC02AE04B01EB103B420B601BB02D401D604D804D904DB04DD40DF010008010204A0050207200A260B800D040E0A1004112613801512162119021A021B12BC
:400AC0001C081D101E2A208021012380262027212B102E802F0230043201342036013720390E3E22580259805A18634066016780840187409020918092289384950A972096
:400B0000981099809A2A9B109C019D149E81A110A301A404A501A630A720AE20AF40C0FCC2EFC4FFCA12CCA3CEA1D60FD801E404EC20EE0830023320352037028120CCF019
:400B4000E6809F02A402A720820884029F02A402A720E210E4809E089F02A720010278408104C008DC019C409D04B502EA02190484409C409D04C6084602D0042502872262
:400B80009E089F02A720C880E040E6400388060807200A401B20824083208F809E089F20A708AF28B102C0F0C210C640E020E420EC40EE101F8034019E02C601CC01820200
:400BC0009E02AF80B001EC04001308130A130C100E1210131A1300AF00000000000014000040400040000000007F7F00000000001F000000000060000100010000000000AC
:400C000000000000000000000000000000000000000000000000000000000000000000000000000000000000000000000000000000000000000000000000000000000000B4
:400C40000000000000000000000000000000000000000000000000000000000000000000000000000000000000000000000000000000000000000000000000000000000074
:400C80000000000000000000000000000000000000000000000000000000000000000000000000000000000000000000000000000000000000000000000000000000000034
:400CC00000000000000000000000000000000000000000000000000000000000000000000000000000000000000000000000000000000000000000000000000000000000F4
:0200000490006A
:0400000000004005B7
:0200000490105A
:04000000BC90ACAF55
:0200000490303A
:02000000B951F4
:0200000490402A
:4000000000000000000000000000000000000000000000000000000000000000000000000000000000000000000000000000000000000000000000000000000000000000C0
:400040000000000000000000000000000000000000000000000000000000000000000000000000000000000000000000000000000000000000000000000000000000000080
:400080000000000000000000000000000000000000000000000000000000000000000000000000000000000000000000000000000000000000000000000000000000000040
:4000C0000000000000000000000000000000000000000000000000000000000000000000000000000000000000000000000000000000000000000000000000000000000000
:0200000490501A
:0C00000000012E12306900012E1FE9BA29
:00000001FF